{
  "_format": "hh-sol-artifact-1",
  "contractName": "OracleStaking",
  "sourceName": "oracles/OracleStaking.sol",
  "abi": [
    {
      "inputs": [
        {
          "internalType": "address",
          "name": "_governance",
          "type": "address"
        },
        {
          "internalType": "address",
          "name": "_oracleRegistry",
          "type": "address"
        },
        {
          "internalType": "uint256",
          "name": "_minimumStake",
          "type": "uint256"
        }
      ],
      "stateMutability": "nonpayable",
      "type": "constructor"
    },
    {
      "inputs": [],
      "name": "InsufficientStake",
      "type": "error"
    },
    {
      "inputs": [],
      "name": "InvalidStakeAmount",
      "type": "error"
    },
    {
      "inputs": [],
      "name": "OnlyGovernance",
      "type": "error"
    },
    {
      "inputs": [],
      "name": "OracleNotActive",
      "type": "error"
    },
    {
      "anonymous": false,
      "inputs": [
        {
          "indexed": false,
          "internalType": "uint256",
          "name": "newMinimumStake",
          "type": "uint256"
        }
      ],
      "name": "MinimumStakeUpdated",
      "type": "event"
    },
    {
      "anonymous": false,
      "inputs": [
        {
          "indexed": true,
          "internalType": "address",
          "name": "oracle",
          "type": "address"
        },
        {
          "indexed": false,
          "internalType": "uint256",
          "name": "amount",
          "type": "uint256"
        }
      ],
      "name": "StakeDeposited",
      "type": "event"
    },
    {
      "anonymous": false,
      "inputs": [
        {
          "indexed": true,
          "internalType": "address",
          "name": "oracle",
          "type": "address"
        },
        {
          "indexed": false,
          "internalType": "uint256",
          "name": "amount",
          "type": "uint256"
        }
      ],
      "name": "StakeSlashed",
      "type": "event"
    },
    {
      "anonymous": false,
      "inputs": [
        {
          "indexed": true,
          "internalType": "address",
          "name": "oracle",
          "type": "address"
        },
        {
          "indexed": false,
          "internalType": "uint256",
          "name": "amount",
          "type": "uint256"
        }
      ],
      "name": "StakeWithdrawn",
      "type": "event"
    },
    {
      "inputs": [
        {
          "internalType": "address",
          "name": "oracle",
          "type": "address"
        }
      ],
      "name": "getStake",
      "outputs": [
        {
          "internalType": "uint256",
          "name": "",
          "type": "uint256"
        }
      ],
      "stateMutability": "view",
      "type": "function"
    },
    {
      "inputs": [],
      "name": "governance",
      "outputs": [
        {
          "internalType": "address",
          "name": "",
          "type": "address"
        }
      ],
      "stateMutability": "view",
      "type": "function"
    },
    {
      "inputs": [],
      "name": "minimumStake",
      "outputs": [
        {
          "internalType": "uint256",
          "name": "",
          "type": "uint256"
        }
      ],
      "stateMutability": "view",
      "type": "function"
    },
    {
      "inputs": [],
      "name": "oracleRegistry",
      "outputs": [
        {
          "internalType": "contract OracleRegistry",
          "name": "",
          "type": "address"
        }
      ],
      "stateMutability": "view",
      "type": "function"
    },
    {
      "inputs": [
        {
          "internalType": "address",
          "name": "oracle",
          "type": "address"
        },
        {
          "internalType": "uint256",
          "name": "amount",
          "type": "uint256"
        }
      ],
      "name": "slash",
      "outputs": [],
      "stateMutability": "nonpayable",
      "type": "function"
    },
    {
      "inputs": [],
      "name": "stake",
      "outputs": [],
      "stateMutability": "payable",
      "type": "function"
    },
    {
      "inputs": [
        {
          "internalType": "address",
          "name": "",
          "type": "address"
        }
      ],
      "name": "stakes",
      "outputs": [
        {
          "internalType": "uint256",
          "name": "",
          "type": "uint256"
        }
      ],
      "stateMutability": "view",
      "type": "function"
    },
    {
      "inputs": [],
      "name": "totalStaked",
      "outputs": [
        {
          "internalType": "uint256",
          "name": "",
          "type": "uint256"
        }
      ],
      "stateMutability": "view",
      "type": "function"
    },
    {
      "inputs": [
        {
          "internalType": "uint256",
          "name": "newMinimumStake",
          "type": "uint256"
        }
      ],
      "name": "updateMinimumStake",
      "outputs": [],
      "stateMutability": "nonpayable",
      "type": "function"
    },
    {
      "inputs": [
        {
          "internalType": "uint256",
          "name": "amount",
          "type": "uint256"
        }
      ],
      "name": "withdraw",
      "outputs": [],
      "stateMutability": "nonpayable",
      "type": "function"
    }
  ],
  "bytecode": "0x60a060405234801561001057600080fd5b5060405161090238038061090283398101604081905261002f9161010d565b6001600160a01b03831661007f5760405162461bcd60e51b8152602060048201526012602482015271494e56414c49445f474f5645524e414e434560701b60448201526064015b60405180910390fd5b6001600160a01b0382166100c85760405162461bcd60e51b815260206004820152601060248201526f494e56414c49445f524547495354525960801b6044820152606401610076565b600080546001600160a01b0319166001600160a01b039485161790559116608052600355610149565b80516001600160a01b038116811461010857600080fd5b919050565b60008060006060848603121561012257600080fd5b61012b846100f1565b9250610139602085016100f1565b9150604084015190509250925092565b608051610790610172600039600081816101320152818161031201526104e901526107906000f3fe6080604052600436106100915760003560e01c80634c41e880116100595780634c41e8801461016c5780635aa6e6751461018c5780637a766460146101ac578063817b1cd2146101e2578063ec5ffac2146101f857600080fd5b806302fb4d851461009657806316934fc4146100b85780632e1a7d4d146100f85780633a4b66f1146101185780634bb93ab114610120575b600080fd5b3480156100a257600080fd5b506100b66100b1366004610691565b61020e565b005b3480156100c457600080fd5b506100e56100d33660046106bb565b60016020526000908152604090205481565b6040519081526020015b60405180910390f35b34801561010457600080fd5b506100b66101133660046106dd565b6102fd565b6100b66104d1565b34801561012c57600080fd5b506101547f000000000000000000000000000000000000000000000000000000000000000081565b6040516001600160a01b0390911681526020016100ef565b34801561017857600080fd5b506100b66101873660046106dd565b61060f565b34801561019857600080fd5b50600054610154906001600160a01b031681565b3480156101b857600080fd5b506100e56101c73660046106bb565b6001600160a01b031660009081526001602052604090205490565b3480156101ee57600080fd5b506100e560025481565b34801561020457600080fd5b506100e560035481565b6000546001600160a01b03163314610239576040516354348f0360e01b815260040160405180910390fd5b6001600160a01b03821660009081526001602052604090205481158061025e57508082115b1561027c57604051630103be3b60e21b815260040160405180910390fd5b610286828261070c565b6001600160a01b038416600090815260016020526040812091909155600280548492906102b490849061070c565b90915550506040518281526001600160a01b038416907f83f5ea8bea7627d95274e94dd7e9e3d7e82cb55feab513ed49e325232dcc61e0906020015b60405180910390a2505050565b604051633ae9b8f160e01b81523360048201527f00000000000000000000000000000000000000000000000000000000000000006001600160a01b031690633ae9b8f190602401602060405180830381865afa158015610361573d6000803e3d6000fd5b505050506040513d601f19601f820116820180604052508101906103859190610725565b156103a357604051634db6f8b960e01b815260040160405180910390fd5b336000908152600160205260409020548115806103bf57508082115b156103dd576040516378de4a6960e11b815260040160405180910390fd5b6103e7828261070c565b336000908152600160205260408120919091556002805484929061040c90849061070c565b9091555050604051600090339084908381818185875af1925050503d8060008114610453576040519150601f19603f3d011682016040523d82523d6000602084013e610458565b606091505b505090508061049f5760405162461bcd60e51b815260206004820152600f60248201526e1514905394d1915497d19052531151608a1b604482015260640160405180910390fd5b60405183815233907f8108595eb6bad3acefa9da467d90cc2217686d5c5ac85460f8b7849c840645fc906020016102f0565b604051633ae9b8f160e01b81523360048201819052907f00000000000000000000000000000000000000000000000000000000000000006001600160a01b031690633ae9b8f190602401602060405180830381865afa158015610538573d6000803e3d6000fd5b505050506040513d601f19601f8201168201806040525081019061055c9190610725565b61057957604051634db6f8b960e01b815260040160405180910390fd5b3460000361059a57604051630103be3b60e21b815260040160405180910390fd5b33600090815260016020526040812080543492906105b9908490610747565b9250508190555034600260008282546105d29190610747565b909155505060405134815233907f0a7bb2e28cc4698aac06db79cf9163bfcc20719286cf59fa7d492ceda1b8edc29060200160405180910390a250565b6000546001600160a01b0316331461063a576040516354348f0360e01b815260040160405180910390fd5b60038190556040518181527ff4045d7dd317de89564c3f12c35961242ed2a4dce3ae4e7a75847ffa04bb08349060200160405180910390a150565b80356001600160a01b038116811461068c57600080fd5b919050565b600080604083850312156106a457600080fd5b6106ad83610675565b946020939093013593505050565b6000602082840312156106cd57600080fd5b6106d682610675565b9392505050565b6000602082840312156106ef57600080fd5b5035919050565b634e487b7160e01b600052601160045260246000fd5b8181038181111561071f5761071f6106f6565b92915050565b60006020828403121561073757600080fd5b815180151581146106d657600080fd5b8082018082111561071f5761071f6106f656fea2646970667358221220edc3361b4eb7553e123a164ecbf331a2a1f6acec879cc37454bcd032682959e864736f6c63430008140033",
  "linkReferences": {},
  "deployedLinkReferences": {}
}