{"oracles/OracleConsensus.sol":{"OracleConsensus":{"abi":[{"inputs":[{"internalType":"address","name":"_governance","type":"address"},{"internalType":"address","name":"_oracleRegistry","type":"address"},{"internalType":"address","name":"_oracleStaking","type":"address"},{"internalType":"uint256","name":"_oracleWeightCapBps","type":"uint256"}],"stateMutability":"nonpayable","type":"constructor"},{"inputs":[],"name":"AlreadySubmitted","type":"error"},{"inputs":[],"name":"ConsensusClosed","type":"error"},{"inputs":[],"name":"ConsensusNotFinalized","type":"error"},{"inputs":[],"name":"InvalidMarket","type":"error"},{"inputs":[],"name":"OnlyGovernance","type":"error"},{"inputs":[],"name":"OracleNotActive","type":"error"},{"inputs":[],"name":"WeightCapExceeded","type":"error"},{"anonymous":false,"inputs":[{"indexed":true,"internalType":"address","name":"market","type":"address"},{"indexed":false,"internalType":"bool","name":"outcome","type":"bool"},{"indexed":false,"internalType":"uint256","name":"totalYesWeight","type":"uint256"},{"indexed":false,"internalType":"uint256","name":"totalNoWeight","type":"uint256"}],"name":"ConsensusFinalized","type":"event"},{"anonymous":false,"inputs":[{"indexed":true,"internalType":"address","name":"oracle","type":"address"},{"indexed":true,"internalType":"address","name":"market","type":"address"},{"indexed":false,"internalType":"bool","name":"outcome","type":"bool"},{"indexed":false,"internalType":"uint256","name":"weight","type":"uint256"}],"name":"OracleSubmitted","type":"event"},{"anonymous":false,"inputs":[{"indexed":false,"internalType":"uint256","name":"newCap","type":"uint256"}],"name":"WeightCapUpdated","type":"event"},{"inputs":[{"internalType":"address","name":"market","type":"address"}],"name":"finalizeConsensus","outputs":[],"stateMutability":"nonpayable","type":"function"},{"inputs":[{"internalType":"address","name":"market","type":"address"}],"name":"getOutcome","outputs":[{"internalType":"bool","name":"outcome","type":"bool"}],"stateMutability":"view","type":"function"},{"inputs":[],"name":"governance","outputs":[{"internalType":"address","name":"","type":"address"}],"stateMutability":"view","type":"function"},{"inputs":[{"internalType":"address","name":"market","type":"address"}],"name":"isFinalized","outputs":[{"internalType":"bool","name":"","type":"bool"}],"stateMutability":"view","type":"function"},{"inputs":[],"name":"oracleRegistry","outputs":[{"internalType":"contract OracleRegistry","name":"","type":"address"}],"stateMutability":"view","type":"function"},{"inputs":[],"name":"oracleStaking","outputs":[{"internalType":"contract OracleStaking","name":"","type":"address"}],"stateMutability":"view","type":"function"},{"inputs":[],"name":"oracleWeightCapBps","outputs":[{"internalType":"uint256","name":"","type":"uint256"}],"stateMutability":"view","type":"function"},{"inputs":[{"internalType":"address","name":"market","type":"address"},{"internalType":"bool","name":"outcome","type":"bool"}],"name":"submitOutcome","outputs":[],"stateMutability":"nonpayable","type":"function"},{"inputs":[{"internalType":"uint256","name":"newCapBps","type":"uint256"}],"name":"updateWeightCap","outputs":[],"stateMutability":"nonpayable","type":"function"}],"devdoc":{"kind":"dev","methods":{},"version":1},"evm":{"bytecode":{"linkReferences":{},"object":"60c060405234801561001057600080fd5b50604051610a06380380610a0683398101604081905261002f9161015c565b6001600160a01b03841661007f5760405162461bcd60e51b8152602060048201526012602482015271494e56414c49445f474f5645524e414e434560701b60448201526064015b60405180910390fd5b6001600160a01b0383166100c85760405162461bcd60e51b815260206004820152601060248201526f494e56414c49445f524547495354525960801b6044820152606401610076565b6001600160a01b0382166101105760405162461bcd60e51b815260206004820152600f60248201526e494e56414c49445f5354414b494e4760881b6044820152606401610076565b600080546001600160a01b0319166001600160a01b0395861617905591831660805290911660a0526001556101a7565b80516001600160a01b038116811461015757600080fd5b919050565b6000806000806080858703121561017257600080fd5b61017b85610140565b935061018960208601610140565b925061019760408601610140565b6060959095015193969295505050565b60805160a0516108266101e06000396000818161016f015281816102e2015261035b01526000818160ce01526101cc01526108266000f3fe608060405234801561001057600080fd5b50600436106100935760003560e01c80635aa6e675116100665780635aa6e67514610144578063ba269c1214610157578063dac1dfe41461016a578063de5e7ac414610191578063e91550da146101a457600080fd5b806303f2b6a71461009857806321d1fbf3146100b45780634bb93ab1146100c957806357e1583214610108575b600080fd5b6100a160015481565b6040519081526020015b60405180910390f35b6100c76100c23660046106e0565b6101b7565b005b6100f07f000000000000000000000000000000000000000000000000000000000000000081565b6040516001600160a01b0390911681526020016100ab565b610134610116366004610717565b6001600160a01b031660009081526002602052604090205460ff1690565b60405190151581526020016100ab565b6000546100f0906001600160a01b031681565b6100c7610165366004610739565b6104dc565b6100f07f000000000000000000000000000000000000000000000000000000000000000081565b61013461019f366004610717565b610586565b6100c76101b2366004610717565b6105cf565b604051633ae9b8f160e01b81523360048201527f00000000000000000000000000000000000000000000000000000000000000006001600160a01b031690633ae9b8f190602401602060405180830381865afa15801561021b573d6000803e3d6000fd5b505050506040513d601f19601f8201168201806040525081019061023f9190610752565b61025c57604051634db6f8b960e01b815260040160405180910390fd5b6001600160a01b0382166000908152600260205260409020805460ff1615610297576040516332883adf60e01b815260040160405180910390fd5b33600090815260038201602052604090205460ff16156102ca57604051639fbfc58960e01b815260040160405180910390fd5b6040516303d3b32360e51b81523360048201526000907f00000000000000000000000000000000000000000000000000000000000000006001600160a01b031690637a76646090602401602060405180830381865afa158015610331573d6000803e3d6000fd5b505050506040513d601f19601f82011682018060405250810190610355919061076f565b905060007f00000000000000000000000000000000000000000000000000000000000000006001600160a01b031663817b1cd26040518163ffffffff1660e01b8152600401602060405180830381865afa1580156103b7573d6000803e3d6000fd5b505050506040513d601f19601f820116820180604052508101906103db919061076f565b90506000612710600154836103f0919061079e565b6103fa91906107bb565b9050600081841161040b578361040d565b815b90508060000361043057604051637df6c2f160e11b815260040160405180910390fd5b3360009081526003860160205260409020805460ff191660011790558515610471578085600101600082825461046691906107dd565b9091555061048b9050565b8085600201600082825461048591906107dd565b90915550505b604080518715158152602081018390526001600160a01b0389169133917f06896601a5cc8287598de242cf11915a89437b0f7696e63e3a3a4df8e7dfd114910160405180910390a350505050505050565b6000546001600160a01b03163314610507576040516354348f0360e01b815260040160405180910390fd5b61271081111561054b5760405162461bcd60e51b815260206004820152600b60248201526a0494e56414c49445f4341560ac1b604482015260640160405180910390fd5b60018190556040518181527f3e722b64d33d3f6a0441a682a2f8e284eb650fbeb1c663e7d6a6ad9788c5557e9060200160405180910390a150565b6001600160a01b0381166000908152600260205260408120805460ff166105c057604051630265aad360e41b815260040160405180910390fd5b54610100900460ff1692915050565b6000546001600160a01b031633146105fa576040516354348f0360e01b815260040160405180910390fd5b6001600160a01b0381166000908152600260205260409020805460ff1615610635576040516332883adf60e01b815260040160405180910390fd5b805460028201546001808401548281101561010090810261ffff1990951694909417909117808555604080519490910460ff161515845260208401919091528201526001600160a01b038316907f6999fd6d258eb39c77ca9ce41661aa65013612d4981144feb9bcbc48d0ed5e089060600160405180910390a25050565b80356001600160a01b03811681146106ca57600080fd5b919050565b80151581146106dd57600080fd5b50565b600080604083850312156106f357600080fd5b6106fc836106b3565b9150602083013561070c816106cf565b809150509250929050565b60006020828403121561072957600080fd5b610732826106b3565b9392505050565b60006020828403121561074b57600080fd5b5035919050565b60006020828403121561076457600080fd5b8151610732816106cf565b60006020828403121561078157600080fd5b5051919050565b634e487b7160e01b600052601160045260246000fd5b80820281158282048414176107b5576107b5610788565b92915050565b6000826107d857634e487b7160e01b600052601260045260246000fd5b500490565b808201808211156107b5576107b561078856fea2646970667358221220a05a56c48c3745f32f7a736cda1ede0d42033c325a62552f7139752e5cc8218b64736f6c63430008140033","opcodes":"PUSH1 0xC0 PUSH1 0x40 MSTORE CALLVALUE DUP1 ISZERO PUSH2 0x10 JUMPI PUSH1 0x0 DUP1 REVERT JUMPDEST POP PUSH1 0x40 MLOAD PUSH2 0xA06 CODESIZE SUB DUP1 PUSH2 0xA06 DUP4 CODECOPY DUP2 ADD PUSH1 0x40 DUP2 SWAP1 MSTORE PUSH2 0x2F SWAP2 PUSH2 0x15C JUMP JUMPDEST PUSH1 0x1 PUSH1 0x1 PUSH1 0xA0 SHL SUB DUP5 AND PUSH2 0x7F JUMPI PUSH1 0x40 MLOAD PUSH3 0x461BCD PUSH1 0xE5 SHL DUP2 MSTORE PUSH1 0x20 PUSH1 0x4 DUP3 ADD MSTORE PUSH1 0x12 PUSH1 0x24 DUP3 ADD MSTORE PUSH18 0x494E56414C49445F474F5645524E414E4345 PUSH1 0x70 SHL PUSH1 0x44 DUP3 ADD MSTORE PUSH1 0x64 ADD JUMPDEST PUSH1 0x40 MLOAD DUP1 SWAP2 SUB SWAP1 REVERT JUMPDEST PUSH1 0x1 PUSH1 0x1 PUSH1 0xA0 SHL SUB DUP4 AND PUSH2 0xC8 JUMPI PUSH1 0x40 MLOAD PUSH3 0x461BCD PUSH1 0xE5 SHL DUP2 MSTORE PUSH1 0x20 PUSH1 0x4 DUP3 ADD MSTORE PUSH1 0x10 PUSH1 0x24 DUP3 ADD MSTORE PUSH16 0x494E56414C49445F5245474953545259 PUSH1 0x80 SHL PUSH1 0x44 DUP3 ADD MSTORE PUSH1 0x64 ADD PUSH2 0x76 JUMP JUMPDEST PUSH1 0x1 PUSH1 0x1 PUSH1 0xA0 SHL SUB DUP3 AND PUSH2 0x110 JUMPI PUSH1 0x40 MLOAD PUSH3 0x461BCD PUSH1 0xE5 SHL DUP2 MSTORE PUSH1 0x20 PUSH1 0x4 DUP3 ADD MSTORE PUSH1 0xF PUSH1 0x24 DUP3 ADD MSTORE PUSH15 0x494E56414C49445F5354414B494E47 PUSH1 0x88 SHL PUSH1 0x44 DUP3 ADD MSTORE PUSH1 0x64 ADD PUSH2 0x76 JUMP JUMPDEST PUSH1 0x0 DUP1 SLOAD PUSH1 0x1 PUSH1 0x1 PUSH1 0xA0 SHL SUB NOT AND PUSH1 0x1 PUSH1 0x1 PUSH1 0xA0 SHL SUB SWAP6 DUP7 AND OR SWAP1 SSTORE SWAP2 DUP4 AND PUSH1 0x80 MSTORE SWAP1 SWAP2 AND PUSH1 0xA0 MSTORE PUSH1 0x1 SSTORE PUSH2 0x1A7 JUMP JUMPDEST DUP1 MLOAD PUSH1 0x1 PUSH1 0x1 PUSH1 0xA0 SHL SUB DUP2 AND DUP2 EQ PUSH2 0x157 JUMPI PUSH1 0x0 DUP1 REVERT JUMPDEST SWAP2 SWAP1 POP JUMP JUMPDEST PUSH1 0x0 DUP1 PUSH1 0x0 DUP1 PUSH1 0x80 DUP6 DUP8 SUB SLT ISZERO PUSH2 0x172 JUMPI PUSH1 0x0 DUP1 REVERT JUMPDEST PUSH2 0x17B DUP6 PUSH2 0x140 JUMP JUMPDEST SWAP4 POP PUSH2 0x189 PUSH1 0x20 DUP7 ADD PUSH2 0x140 JUMP JUMPDEST SWAP3 POP PUSH2 0x197 PUSH1 0x40 DUP7 ADD PUSH2 0x140 JUMP JUMPDEST PUSH1 0x60 SWAP6 SWAP1 SWAP6 ADD MLOAD SWAP4 SWAP7 SWAP3 SWAP6 POP POP POP JUMP JUMPDEST PUSH1 0x80 MLOAD PUSH1 0xA0 MLOAD PUSH2 0x826 PUSH2 0x1E0 PUSH1 0x0 CODECOPY PUSH1 0x0 DUP2 DUP2 PUSH2 0x16F ADD MSTORE DUP2 DUP2 PUSH2 0x2E2 ADD MSTORE PUSH2 0x35B ADD MSTORE PUSH1 0x0 DUP2 DUP2 PUSH1 0xCE ADD MSTORE PUSH2 0x1CC ADD MSTORE PUSH2 0x826 PUSH1 0x0 RETURN INVALID PUSH1 0x80 PUSH1 0x40 MSTORE CALLVALUE DUP1 ISZERO PUSH2 0x10 JUMPI PUSH1 0x0 DUP1 REVERT JUMPDEST POP PUSH1 0x4 CALLDATASIZE LT PUSH2 0x93 JUMPI PUSH1 0x0 CALLDATALOAD PUSH1 0xE0 SHR DUP1 PUSH4 0x5AA6E675 GT PUSH2 0x66 JUMPI DUP1 PUSH4 0x5AA6E675 EQ PUSH2 0x144 JUMPI DUP1 PUSH4 0xBA269C12 EQ PUSH2 0x157 JUMPI DUP1 PUSH4 0xDAC1DFE4 EQ PUSH2 0x16A JUMPI DUP1 PUSH4 0xDE5E7AC4 EQ PUSH2 0x191 JUMPI DUP1 PUSH4 0xE91550DA EQ PUSH2 0x1A4 JUMPI PUSH1 0x0 DUP1 REVERT JUMPDEST DUP1 PUSH4 0x3F2B6A7 EQ PUSH2 0x98 JUMPI DUP1 PUSH4 0x21D1FBF3 EQ PUSH2 0xB4 JUMPI DUP1 PUSH4 0x4BB93AB1 EQ PUSH2 0xC9 JUMPI DUP1 PUSH4 0x57E15832 EQ PUSH2 0x108 JUMPI JUMPDEST PUSH1 0x0 DUP1 REVERT JUMPDEST PUSH2 0xA1 PUSH1 0x1 SLOAD DUP2 JUMP JUMPDEST PUSH1 0x40 MLOAD SWAP1 DUP2 MSTORE PUSH1 0x20 ADD JUMPDEST PUSH1 0x40 MLOAD DUP1 SWAP2 SUB SWAP1 RETURN JUMPDEST PUSH2 0xC7 PUSH2 0xC2 CALLDATASIZE PUSH1 0x4 PUSH2 0x6E0 JUMP JUMPDEST PUSH2 0x1B7 JUMP JUMPDEST STOP JUMPDEST PUSH2 0xF0 PUSH32 0x0 DUP2 JUMP JUMPDEST PUSH1 0x40 MLOAD PUSH1 0x1 PUSH1 0x1 PUSH1 0xA0 SHL SUB SWAP1 SWAP2 AND DUP2 MSTORE PUSH1 0x20 ADD PUSH2 0xAB JUMP JUMPDEST PUSH2 0x134 PUSH2 0x116 CALLDATASIZE PUSH1 0x4 PUSH2 0x717 JUMP JUMPDEST PUSH1 0x1 PUSH1 0x1 PUSH1 0xA0 SHL SUB AND PUSH1 0x0 SWAP1 DUP2 MSTORE PUSH1 0x2 PUSH1 0x20 MSTORE PUSH1 0x40 SWAP1 KECCAK256 SLOAD PUSH1 0xFF AND SWAP1 JUMP JUMPDEST PUSH1 0x40 MLOAD SWAP1 ISZERO ISZERO DUP2 MSTORE PUSH1 0x20 ADD PUSH2 0xAB JUMP JUMPDEST PUSH1 0x0 SLOAD PUSH2 0xF0 SWAP1 PUSH1 0x1 PUSH1 0x1 PUSH1 0xA0 SHL SUB AND DUP2 JUMP JUMPDEST PUSH2 0xC7 PUSH2 0x165 CALLDATASIZE PUSH1 0x4 PUSH2 0x739 JUMP JUMPDEST PUSH2 0x4DC JUMP JUMPDEST PUSH2 0xF0 PUSH32 0x0 DUP2 JUMP JUMPDEST PUSH2 0x134 PUSH2 0x19F CALLDATASIZE PUSH1 0x4 PUSH2 0x717 JUMP JUMPDEST PUSH2 0x586 JUMP JUMPDEST PUSH2 0xC7 PUSH2 0x1B2 CALLDATASIZE PUSH1 0x4 PUSH2 0x717 JUMP JUMPDEST PUSH2 0x5CF JUMP JUMPDEST PUSH1 0x40 MLOAD PUSH4 0x3AE9B8F1 PUSH1 0xE0 SHL DUP2 MSTORE CALLER PUSH1 0x4 DUP3 ADD MSTORE PUSH32 0x0 PUSH1 0x1 PUSH1 0x1 PUSH1 0xA0 SHL SUB AND SWAP1 PUSH4 0x3AE9B8F1 SWAP1 PUSH1 0x24 ADD PUSH1 0x20 PUSH1 0x40 MLOAD DUP1 DUP4 SUB DUP2 DUP7 GAS STATICCALL ISZERO DUP1 ISZERO PUSH2 0x21B JUMPI RETURNDATASIZE PUSH1 0x0 DUP1 RETURNDATACOPY RETURNDATASIZE PUSH1 0x0 REVERT JUMPDEST POP POP POP POP PUSH1 0x40 MLOAD RETURNDATASIZE PUSH1 0x1F NOT PUSH1 0x1F DUP3 ADD AND DUP3 ADD DUP1 PUSH1 0x40 MSTORE POP DUP2 ADD SWAP1 PUSH2 0x23F SWAP2 SWAP1 PUSH2 0x752 JUMP JUMPDEST PUSH2 0x25C JUMPI PUSH1 0x40 MLOAD PUSH4 0x4DB6F8B9 PUSH1 0xE0 SHL DUP2 MSTORE PUSH1 0x4 ADD PUSH1 0x40 MLOAD DUP1 SWAP2 SUB SWAP1 REVERT JUMPDEST PUSH1 0x1 PUSH1 0x1 PUSH1 0xA0 SHL SUB DUP3 AND PUSH1 0x0 SWAP1 DUP2 MSTORE PUSH1 0x2 PUSH1 0x20 MSTORE PUSH1 0x40 SWAP1 KECCAK256 DUP1 SLOAD PUSH1 0xFF AND ISZERO PUSH2 0x297 JUMPI PUSH1 0x40 MLOAD PUSH4 0x32883ADF PUSH1 0xE0 SHL DUP2 MSTORE PUSH1 0x4 ADD PUSH1 0x40 MLOAD DUP1 SWAP2 SUB SWAP1 REVERT JUMPDEST CALLER PUSH1 0x0 SWAP1 DUP2 MSTORE PUSH1 0x3 DUP3 ADD PUSH1 0x20 MSTORE PUSH1 0x40 SWAP1 KECCAK256 SLOAD PUSH1 0xFF AND ISZERO PUSH2 0x2CA JUMPI PUSH1 0x40 MLOAD PUSH4 0x9FBFC589 PUSH1 0xE0 SHL DUP2 MSTORE PUSH1 0x4 ADD PUSH1 0x40 MLOAD DUP1 SWAP2 SUB SWAP1 REVERT JUMPDEST PUSH1 0x40 MLOAD PUSH4 0x3D3B323 PUSH1 0xE5 SHL DUP2 MSTORE CALLER PUSH1 0x4 DUP3 ADD MSTORE PUSH1 0x0 SWAP1 PUSH32 0x0 PUSH1 0x1 PUSH1 0x1 PUSH1 0xA0 SHL SUB AND SWAP1 PUSH4 0x7A766460 SWAP1 PUSH1 0x24 ADD PUSH1 0x20 PUSH1 0x40 MLOAD DUP1 DUP4 SUB DUP2 DUP7 GAS STATICCALL ISZERO DUP1 ISZERO PUSH2 0x331 JUMPI RETURNDATASIZE PUSH1 0x0 DUP1 RETURNDATACOPY RETURNDATASIZE PUSH1 0x0 REVERT JUMPDEST POP POP POP POP PUSH1 0x40 MLOAD RETURNDATASIZE PUSH1 0x1F NOT PUSH1 0x1F DUP3 ADD AND DUP3 ADD DUP1 PUSH1 0x40 MSTORE POP DUP2 ADD SWAP1 PUSH2 0x355 SWAP2 SWAP1 PUSH2 0x76F JUMP JUMPDEST SWAP1 POP PUSH1 0x0 PUSH32 0x0 PUSH1 0x1 PUSH1 0x1 PUSH1 0xA0 SHL SUB AND PUSH4 0x817B1CD2 PUSH1 0x40 MLOAD DUP2 PUSH4 0xFFFFFFFF AND PUSH1 0xE0 SHL DUP2 MSTORE PUSH1 0x4 ADD PUSH1 0x20 PUSH1 0x40 MLOAD DUP1 DUP4 SUB DUP2 DUP7 GAS STATICCALL ISZERO DUP1 ISZERO PUSH2 0x3B7 JUMPI RETURNDATASIZE PUSH1 0x0 DUP1 RETURNDATACOPY RETURNDATASIZE PUSH1 0x0 REVERT JUMPDEST POP POP POP POP PUSH1 0x40 MLOAD RETURNDATASIZE PUSH1 0x1F NOT PUSH1 0x1F DUP3 ADD AND DUP3 ADD DUP1 PUSH1 0x40 MSTORE POP DUP2 ADD SWAP1 PUSH2 0x3DB SWAP2 SWAP1 PUSH2 0x76F JUMP JUMPDEST SWAP1 POP PUSH1 0x0 PUSH2 0x2710 PUSH1 0x1 SLOAD DUP4 PUSH2 0x3F0 SWAP2 SWAP1 PUSH2 0x79E JUMP JUMPDEST PUSH2 0x3FA SWAP2 SWAP1 PUSH2 0x7BB JUMP JUMPDEST SWAP1 POP PUSH1 0x0 DUP2 DUP5 GT PUSH2 0x40B JUMPI DUP4 PUSH2 0x40D JUMP JUMPDEST DUP2 JUMPDEST SWAP1 POP DUP1 PUSH1 0x0 SUB PUSH2 0x430 JUMPI PUSH1 0x40 MLOAD PUSH4 0x7DF6C2F1 PUSH1 0xE1 SHL DUP2 MSTORE PUSH1 0x4 ADD PUSH1 0x40 MLOAD DUP1 SWAP2 SUB SWAP1 REVERT JUMPDEST CALLER PUSH1 0x0 SWAP1 DUP2 MSTORE PUSH1 0x3 DUP7 ADD PUSH1 0x20 MSTORE PUSH1 0x40 SWAP1 KECCAK256 DUP1 SLOAD PUSH1 0xFF NOT AND PUSH1 0x1 OR SWAP1 SSTORE DUP6 ISZERO PUSH2 0x471 JUMPI DUP1 DUP6 PUSH1 0x1 ADD PUSH1 0x0 DUP3 DUP3 SLOAD PUSH2 0x466 SWAP2 SWAP1 PUSH2 0x7DD JUMP JUMPDEST SWAP1 SWAP2 SSTORE POP PUSH2 0x48B SWAP1 POP JUMP JUMPDEST DUP1 DUP6 PUSH1 0x2 ADD PUSH1 0x0 DUP3 DUP3 SLOAD PUSH2 0x485 SWAP2 SWAP1 PUSH2 0x7DD JUMP JUMPDEST SWAP1 SWAP2 SSTORE POP POP JUMPDEST PUSH1 0x40 DUP1 MLOAD DUP8 ISZERO ISZERO DUP2 MSTORE PUSH1 0x20 DUP2 ADD DUP4 SWAP1 MSTORE PUSH1 0x1 PUSH1 0x1 PUSH1 0xA0 SHL SUB DUP10 AND SWAP2 CALLER SWAP2 PUSH32 0x6896601A5CC8287598DE242CF11915A89437B0F7696E63E3A3A4DF8E7DFD114 SWAP2 ADD PUSH1 0x40 MLOAD DUP1 SWAP2 SUB SWAP1 LOG3 POP POP POP POP POP POP POP JUMP JUMPDEST PUSH1 0x0 SLOAD PUSH1 0x1 PUSH1 0x1 PUSH1 0xA0 SHL SUB AND CALLER EQ PUSH2 0x507 JUMPI PUSH1 0x40 MLOAD PUSH4 0x54348F03 PUSH1 0xE0 SHL DUP2 MSTORE PUSH1 0x4 ADD PUSH1 0x40 MLOAD DUP1 SWAP2 SUB SWAP1 REVERT JUMPDEST PUSH2 0x2710 DUP2 GT ISZERO PUSH2 0x54B JUMPI PUSH1 0x40 MLOAD PUSH3 0x461BCD PUSH1 0xE5 SHL DUP2 MSTORE PUSH1 0x20 PUSH1 0x4 DUP3 ADD MSTORE PUSH1 0xB PUSH1 0x24 DUP3 ADD MSTORE PUSH11 0x494E56414C49445F43415 PUSH1 0xAC SHL PUSH1 0x44 DUP3 ADD MSTORE PUSH1 0x64 ADD PUSH1 0x40 MLOAD DUP1 SWAP2 SUB SWAP1 REVERT JUMPDEST PUSH1 0x1 DUP2 SWAP1 SSTORE PUSH1 0x40 MLOAD DUP2 DUP2 MSTORE PUSH32 0x3E722B64D33D3F6A0441A682A2F8E284EB650FBEB1C663E7D6A6AD9788C5557E SWAP1 PUSH1 0x20 ADD PUSH1 0x40 MLOAD DUP1 SWAP2 SUB SWAP1 LOG1 POP JUMP JUMPDEST PUSH1 0x1 PUSH1 0x1 PUSH1 0xA0 SHL SUB DUP2 AND PUSH1 0x0 SWAP1 DUP2 MSTORE PUSH1 0x2 PUSH1 0x20 MSTORE PUSH1 0x40 DUP2 KECCAK256 DUP1 SLOAD PUSH1 0xFF AND PUSH2 0x5C0 JUMPI PUSH1 0x40 MLOAD PUSH4 0x265AAD3 PUSH1 0xE4 SHL DUP2 MSTORE PUSH1 0x4 ADD PUSH1 0x40 MLOAD DUP1 SWAP2 SUB SWAP1 REVERT JUMPDEST SLOAD PUSH2 0x100 SWAP1 DIV PUSH1 0xFF AND SWAP3 SWAP2 POP POP JUMP JUMPDEST PUSH1 0x0 SLOAD PUSH1 0x1 PUSH1 0x1 PUSH1 0xA0 SHL SUB AND CALLER EQ PUSH2 0x5FA JUMPI PUSH1 0x40 MLOAD PUSH4 0x54348F03 PUSH1 0xE0 SHL DUP2 MSTORE PUSH1 0x4 ADD PUSH1 0x40 MLOAD DUP1 SWAP2 SUB SWAP1 REVERT JUMPDEST PUSH1 0x1 PUSH1 0x1 PUSH1 0xA0 SHL SUB DUP2 AND PUSH1 0x0 SWAP1 DUP2 MSTORE PUSH1 0x2 PUSH1 0x20 MSTORE PUSH1 0x40 SWAP1 KECCAK256 DUP1 SLOAD PUSH1 0xFF AND ISZERO PUSH2 0x635 JUMPI PUSH1 0x40 MLOAD PUSH4 0x32883ADF PUSH1 0xE0 SHL DUP2 MSTORE PUSH1 0x4 ADD PUSH1 0x40 MLOAD DUP1 SWAP2 SUB SWAP1 REVERT JUMPDEST DUP1 SLOAD PUSH1 0x2 DUP3 ADD SLOAD PUSH1 0x1 DUP1 DUP5 ADD SLOAD DUP3 DUP2 LT ISZERO PUSH2 0x100 SWAP1 DUP2 MUL PUSH2 0xFFFF NOT SWAP1 SWAP6 AND SWAP5 SWAP1 SWAP5 OR SWAP1 SWAP2 OR DUP1 DUP6 SSTORE PUSH1 0x40 DUP1 MLOAD SWAP5 SWAP1 SWAP2 DIV PUSH1 0xFF AND ISZERO ISZERO DUP5 MSTORE PUSH1 0x20 DUP5 ADD SWAP2 SWAP1 SWAP2 MSTORE DUP3 ADD MSTORE PUSH1 0x1 PUSH1 0x1 PUSH1 0xA0 SHL SUB DUP4 AND SWAP1 PUSH32 0x6999FD6D258EB39C77CA9CE41661AA65013612D4981144FEB9BCBC48D0ED5E08 SWAP1 PUSH1 0x60 ADD PUSH1 0x40 MLOAD DUP1 SWAP2 SUB SWAP1 LOG2 POP POP JUMP JUMPDEST DUP1 CALLDATALOAD PUSH1 0x1 PUSH1 0x1 PUSH1 0xA0 SHL SUB DUP2 AND DUP2 EQ PUSH2 0x6CA JUMPI PUSH1 0x0 DUP1 REVERT JUMPDEST SWAP2 SWAP1 POP JUMP JUMPDEST DUP1 ISZERO ISZERO DUP2 EQ PUSH2 0x6DD JUMPI PUSH1 0x0 DUP1 REVERT JUMPDEST POP JUMP JUMPDEST PUSH1 0x0 DUP1 PUSH1 0x40 DUP4 DUP6 SUB SLT ISZERO PUSH2 0x6F3 JUMPI PUSH1 0x0 DUP1 REVERT JUMPDEST PUSH2 0x6FC DUP4 PUSH2 0x6B3 JUMP JUMPDEST SWAP2 POP PUSH1 0x20 DUP4 ADD CALLDATALOAD PUSH2 0x70C DUP2 PUSH2 0x6CF JUMP JUMPDEST DUP1 SWAP2 POP POP SWAP3 POP SWAP3 SWAP1 POP JUMP JUMPDEST PUSH1 0x0 PUSH1 0x20 DUP3 DUP5 SUB SLT ISZERO PUSH2 0x729 JUMPI PUSH1 0x0 DUP1 REVERT JUMPDEST PUSH2 0x732 DUP3 PUSH2 0x6B3 JUMP JUMPDEST SWAP4 SWAP3 POP POP POP JUMP JUMPDEST PUSH1 0x0 PUSH1 0x20 DUP3 DUP5 SUB SLT ISZERO PUSH2 0x74B JUMPI PUSH1 0x0 DUP1 REVERT JUMPDEST POP CALLDATALOAD SWAP2 SWAP1 POP JUMP JUMPDEST PUSH1 0x0 PUSH1 0x20 DUP3 DUP5 SUB SLT ISZERO PUSH2 0x764 JUMPI PUSH1 0x0 DUP1 REVERT JUMPDEST DUP2 MLOAD PUSH2 0x732 DUP2 PUSH2 0x6CF JUMP JUMPDEST PUSH1 0x0 PUSH1 0x20 DUP3 DUP5 SUB SLT ISZERO PUSH2 0x781 JUMPI PUSH1 0x0 DUP1 REVERT JUMPDEST POP MLOAD SWAP2 SWAP1 POP JUMP JUMPDEST PUSH4 0x4E487B71 PUSH1 0xE0 SHL PUSH1 0x0 MSTORE PUSH1 0x11 PUSH1 0x4 MSTORE PUSH1 0x24 PUSH1 0x0 REVERT JUMPDEST DUP1 DUP3 MUL DUP2 ISZERO DUP3 DUP3 DIV DUP5 EQ OR PUSH2 0x7B5 JUMPI PUSH2 0x7B5 PUSH2 0x788 JUMP JUMPDEST SWAP3 SWAP2 POP POP JUMP JUMPDEST PUSH1 0x0 DUP3 PUSH2 0x7D8 JUMPI PUSH4 0x4E487B71 PUSH1 0xE0 SHL PUSH1 0x0 MSTORE PUSH1 0x12 PUSH1 0x4 MSTORE PUSH1 0x24 PUSH1 0x0 REVERT JUMPDEST POP DIV SWAP1 JUMP JUMPDEST DUP1 DUP3 ADD DUP1 DUP3 GT ISZERO PUSH2 0x7B5 JUMPI PUSH2 0x7B5 PUSH2 0x788 JUMP INVALID LOG2 PUSH5 0x6970667358 0x22 SLT KECCAK256 LOG0 GAS JUMP 0xC4 DUP13 CALLDATACOPY GASLIMIT RETURN 0x2F PUSH27 0x736CDA1EDE0D42033C325A62552F7139752E5CC8218B64736F6C63 NUMBER STOP ADDMOD EQ STOP CALLER "},"gasEstimates":{"creation":{"codeDepositCost":"417200","executionCost":"infinite","totalCost":"infinite"},"external":{"finalizeConsensus(address)":"35272","getOutcome(address)":"4771","governance()":"2337","isFinalized(address)":"2616","oracleRegistry()":"infinite","oracleStaking()":"infinite","oracleWeightCapBps()":"2285","submitOutcome(address,bool)":"infinite","updateWeightCap(uint256)":"25577"}},"methodIdentifiers":{"finalizeConsensus(address)":"e91550da","getOutcome(address)":"de5e7ac4","governance()":"5aa6e675","isFinalized(address)":"57e15832","oracleRegistry()":"4bb93ab1","oracleStaking()":"dac1dfe4","oracleWeightCapBps()":"03f2b6a7","submitOutcome(address,bool)":"21d1fbf3","updateWeightCap(uint256)":"ba269c12"}},"storageLayout":{"storage":[{"astId":45,"contract":"oracles/OracleConsensus.sol:OracleConsensus","label":"governance","offset":0,"slot":"0","type":"t_address"},{"astId":54,"contract":"oracles/OracleConsensus.sol:OracleConsensus","label":"oracleWeightCapBps","offset":0,"slot":"1","type":"t_uint256"},{"astId":73,"contract":"oracles/OracleConsensus.sol:OracleConsensus","label":"consensuses","offset":0,"slot":"2","type":"t_mapping(t_address,t_struct(MarketConsensus)67_storage)"}],"types":{"t_address":{"encoding":"inplace","label":"address","numberOfBytes":"20"},"t_bool":{"encoding":"inplace","label":"bool","numberOfBytes":"1"},"t_mapping(t_address,t_bool)":{"encoding":"mapping","key":"t_address","label":"mapping(address => bool)","numberOfBytes":"32","value":"t_bool"},"t_mapping(t_address,t_struct(MarketConsensus)67_storage)":{"encoding":"mapping","key":"t_address","label":"mapping(address => struct OracleConsensus.MarketConsensus)","numberOfBytes":"32","value":"t_struct(MarketConsensus)67_storage"},"t_struct(MarketConsensus)67_storage":{"encoding":"inplace","label":"struct OracleConsensus.MarketConsensus","members":[{"astId":56,"contract":"oracles/OracleConsensus.sol:OracleConsensus","label":"finalized","offset":0,"slot":"0","type":"t_bool"},{"astId":58,"contract":"oracles/OracleConsensus.sol:OracleConsensus","label":"outcome","offset":1,"slot":"0","type":"t_bool"},{"astId":60,"contract":"oracles/OracleConsensus.sol:OracleConsensus","label":"yesWeight","offset":0,"slot":"1","type":"t_uint256"},{"astId":62,"contract":"oracles/OracleConsensus.sol:OracleConsensus","label":"noWeight","offset":0,"slot":"2","type":"t_uint256"},{"astId":66,"contract":"oracles/OracleConsensus.sol:OracleConsensus","label":"submitted","offset":0,"slot":"3","type":"t_mapping(t_address,t_bool)"}],"numberOfBytes":"128"},"t_uint256":{"encoding":"inplace","label":"uint256","numberOfBytes":"32"}}},"userdoc":{"kind":"user","methods":{"finalizeConsensus(address)":{"notice":"Finalize consensus after submission window"},"oracleWeightCapBps()":{"notice":"Max weight an oracle can contribute (bps of total stake)"},"submitOutcome(address,bool)":{"notice":"Submit oracle outcome for a market"}},"version":1}}}}