{"oracles/OracleSlashing.sol":{"OracleSlashing":{"abi":[{"inputs":[{"internalType":"address","name":"_governance","type":"address"},{"internalType":"address","name":"_oracleConsensus","type":"address"},{"internalType":"address","name":"_oracleStaking","type":"address"},{"internalType":"address","name":"_oracleRegistry","type":"address"},{"internalType":"uint256","name":"_baseSlashBps","type":"uint256"}],"stateMutability":"nonpayable","type":"constructor"},{"inputs":[],"name":"ConsensusNotFinalized","type":"error"},{"inputs":[],"name":"InvalidSlashAmount","type":"error"},{"inputs":[],"name":"OnlyGovernance","type":"error"},{"inputs":[],"name":"OracleNotEligible","type":"error"},{"anonymous":false,"inputs":[{"indexed":true,"internalType":"address","name":"oracle","type":"address"},{"indexed":true,"internalType":"address","name":"market","type":"address"},{"indexed":false,"internalType":"uint256","name":"amount","type":"uint256"}],"name":"OracleSlashed","type":"event"},{"anonymous":false,"inputs":[{"indexed":false,"internalType":"uint256","name":"newSlashBps","type":"uint256"}],"name":"SlashRateUpdated","type":"event"},{"inputs":[],"name":"baseSlashBps","outputs":[{"internalType":"uint256","name":"","type":"uint256"}],"stateMutability":"view","type":"function"},{"inputs":[],"name":"governance","outputs":[{"internalType":"address","name":"","type":"address"}],"stateMutability":"view","type":"function"},{"inputs":[],"name":"oracleConsensus","outputs":[{"internalType":"contract OracleConsensus","name":"","type":"address"}],"stateMutability":"view","type":"function"},{"inputs":[],"name":"oracleRegistry","outputs":[{"internalType":"contract OracleRegistry","name":"","type":"address"}],"stateMutability":"view","type":"function"},{"inputs":[],"name":"oracleStaking","outputs":[{"internalType":"contract OracleStaking","name":"","type":"address"}],"stateMutability":"view","type":"function"},{"inputs":[{"internalType":"address","name":"oracle","type":"address"},{"internalType":"address","name":"market","type":"address"},{"internalType":"bool","name":"oracleOutcome","type":"bool"}],"name":"slashOracle","outputs":[],"stateMutability":"nonpayable","type":"function"},{"inputs":[{"internalType":"uint256","name":"newSlashBps","type":"uint256"}],"name":"updateBaseSlash","outputs":[],"stateMutability":"nonpayable","type":"function"}],"devdoc":{"kind":"dev","methods":{"slashOracle(address,address,bool)":{"details":"Governance-triggered, deterministic execution"}},"version":1},"evm":{"bytecode":{"linkReferences":{},"object":"60e060405234801561001057600080fd5b506040516109c23803806109c283398101604081905261002f916101ee565b6001600160a01b03851661007f5760405162461bcd60e51b8152602060048201526012602482015271494e56414c49445f474f5645524e414e434560701b60448201526064015b60405180910390fd5b6001600160a01b0384166100c95760405162461bcd60e51b8152602060048201526011602482015270494e56414c49445f434f4e53454e53555360781b6044820152606401610076565b6001600160a01b0383166101115760405162461bcd60e51b815260206004820152600f60248201526e494e56414c49445f5354414b494e4760881b6044820152606401610076565b6001600160a01b03821661015a5760405162461bcd60e51b815260206004820152601060248201526f494e56414c49445f524547495354525960801b6044820152606401610076565b61271081111561019c5760405162461bcd60e51b815260206004820152600d60248201526c0929cac82989288bea69882a69609b1b6044820152606401610076565b600080546001600160a01b0319166001600160a01b0396871617905592841660805290831660a05290911660c05260015561024c565b80516001600160a01b03811681146101e957600080fd5b919050565b600080600080600060a0868803121561020657600080fd5b61020f866101d2565b945061021d602087016101d2565b935061022b604087016101d2565b9250610239606087016101d2565b9150608086015190509295509295909350565b60805160a05160c05161072561029d6000396000818160870152610257015260008181610144015281816103a30152610479015260008181610106015281816101b0015261030101526107256000f3fe608060405234801561001057600080fd5b506004361061007d5760003560e01c80639b7b5a181161005b5780639b7b5a18146100ee578063a22539e614610101578063a3aa658914610128578063dac1dfe41461013f57600080fd5b80634bb93ab1146100825780635aa6e675146100c65780639b4ae46a146100d9575b600080fd5b6100a97f000000000000000000000000000000000000000000000000000000000000000081565b6040516001600160a01b0390911681526020015b60405180910390f35b6000546100a9906001600160a01b031681565b6100ec6100e7366004610605565b610166565b005b6100ec6100fc36600461064c565b61052c565b6100a97f000000000000000000000000000000000000000000000000000000000000000081565b61013160015481565b6040519081526020016100bd565b6100a97f000000000000000000000000000000000000000000000000000000000000000081565b6000546001600160a01b03163314610191576040516354348f0360e01b815260040160405180910390fd5b604051632bf0ac1960e11b81526001600160a01b0383811660048301527f000000000000000000000000000000000000000000000000000000000000000016906357e1583290602401602060405180830381865afa1580156101f7573d6000803e3d6000fd5b505050506040513d601f19601f8201168201806040525081019061021b9190610665565b61023857604051630265aad360e41b815260040160405180910390fd5b604051633ae9b8f160e01b81526001600160a01b0384811660048301527f00000000000000000000000000000000000000000000000000000000000000001690633ae9b8f190602401602060405180830381865afa15801561029e573d6000803e3d6000fd5b505050506040513d601f19601f820116820180604052508101906102c29190610665565b6102df576040516358e2fff960e01b815260040160405180910390fd5b6040516337979eb160e21b81526001600160a01b0383811660048301526000917f00000000000000000000000000000000000000000000000000000000000000009091169063de5e7ac490602401602060405180830381865afa15801561034a573d6000803e3d6000fd5b505050506040513d601f19601f8201168201806040525081019061036e9190610665565b9050801515821515036103815750505050565b6040516303d3b32360e51b81526001600160a01b0385811660048301526000917f000000000000000000000000000000000000000000000000000000000000000090911690637a76646090602401602060405180830381865afa1580156103ec573d6000803e3d6000fd5b505050506040513d601f19601f820116820180604052508101906104109190610689565b9050806000036104335760405163c58d593560e01b815260040160405180910390fd5b60006127106001548361044691906106a2565b61045091906106cd565b6040516302fb4d8560e01b81526001600160a01b038881166004830152602482018390529192507f0000000000000000000000000000000000000000000000000000000000000000909116906302fb4d8590604401600060405180830381600087803b1580156104bf57600080fd5b505af11580156104d3573d6000803e3d6000fd5b50505050846001600160a01b0316866001600160a01b03167f368b6a56664781cf84db4f954c0b68aafca662904e5ff904b208eb40c659a7618360405161051c91815260200190565b60405180910390a3505050505050565b6000546001600160a01b03163314610557576040516354348f0360e01b815260040160405180910390fd5b61271081111561059d5760405162461bcd60e51b815260206004820152600d60248201526c0929cac82989288bea69882a69609b1b604482015260640160405180910390fd5b60018190556040518181527f1654e89c8d2dac302e1c1104593c96cb34b1e288ada068a1ed1715d2a5dd9a5f9060200160405180910390a150565b80356001600160a01b03811681146105ef57600080fd5b919050565b801515811461060257600080fd5b50565b60008060006060848603121561061a57600080fd5b610623846105d8565b9250610631602085016105d8565b91506040840135610641816105f4565b809150509250925092565b60006020828403121561065e57600080fd5b5035919050565b60006020828403121561067757600080fd5b8151610682816105f4565b9392505050565b60006020828403121561069b57600080fd5b5051919050565b80820281158282048414176106c757634e487b7160e01b600052601160045260246000fd5b92915050565b6000826106ea57634e487b7160e01b600052601260045260246000fd5b50049056fea26469706673582212201ea98fd5bf79c2ada3a7d36bfbace27422bf0a8fa597071642d6300686117dae64736f6c63430008140033","opcodes":"PUSH1 0xE0 PUSH1 0x40 MSTORE CALLVALUE DUP1 ISZERO PUSH2 0x10 JUMPI PUSH1 0x0 DUP1 REVERT JUMPDEST POP PUSH1 0x40 MLOAD PUSH2 0x9C2 CODESIZE SUB DUP1 PUSH2 0x9C2 DUP4 CODECOPY DUP2 ADD PUSH1 0x40 DUP2 SWAP1 MSTORE PUSH2 0x2F SWAP2 PUSH2 0x1EE JUMP JUMPDEST PUSH1 0x1 PUSH1 0x1 PUSH1 0xA0 SHL SUB DUP6 AND PUSH2 0x7F JUMPI PUSH1 0x40 MLOAD PUSH3 0x461BCD PUSH1 0xE5 SHL DUP2 MSTORE PUSH1 0x20 PUSH1 0x4 DUP3 ADD MSTORE PUSH1 0x12 PUSH1 0x24 DUP3 ADD MSTORE PUSH18 0x494E56414C49445F474F5645524E414E4345 PUSH1 0x70 SHL PUSH1 0x44 DUP3 ADD MSTORE PUSH1 0x64 ADD JUMPDEST PUSH1 0x40 MLOAD DUP1 SWAP2 SUB SWAP1 REVERT JUMPDEST PUSH1 0x1 PUSH1 0x1 PUSH1 0xA0 SHL SUB DUP5 AND PUSH2 0xC9 JUMPI PUSH1 0x40 MLOAD PUSH3 0x461BCD PUSH1 0xE5 SHL DUP2 MSTORE PUSH1 0x20 PUSH1 0x4 DUP3 ADD MSTORE PUSH1 0x11 PUSH1 0x24 DUP3 ADD MSTORE PUSH17 0x494E56414C49445F434F4E53454E535553 PUSH1 0x78 SHL PUSH1 0x44 DUP3 ADD MSTORE PUSH1 0x64 ADD PUSH2 0x76 JUMP JUMPDEST PUSH1 0x1 PUSH1 0x1 PUSH1 0xA0 SHL SUB DUP4 AND PUSH2 0x111 JUMPI PUSH1 0x40 MLOAD PUSH3 0x461BCD PUSH1 0xE5 SHL DUP2 MSTORE PUSH1 0x20 PUSH1 0x4 DUP3 ADD MSTORE PUSH1 0xF PUSH1 0x24 DUP3 ADD MSTORE PUSH15 0x494E56414C49445F5354414B494E47 PUSH1 0x88 SHL PUSH1 0x44 DUP3 ADD MSTORE PUSH1 0x64 ADD PUSH2 0x76 JUMP JUMPDEST PUSH1 0x1 PUSH1 0x1 PUSH1 0xA0 SHL SUB DUP3 AND PUSH2 0x15A JUMPI PUSH1 0x40 MLOAD PUSH3 0x461BCD PUSH1 0xE5 SHL DUP2 MSTORE PUSH1 0x20 PUSH1 0x4 DUP3 ADD MSTORE PUSH1 0x10 PUSH1 0x24 DUP3 ADD MSTORE PUSH16 0x494E56414C49445F5245474953545259 PUSH1 0x80 SHL PUSH1 0x44 DUP3 ADD MSTORE PUSH1 0x64 ADD PUSH2 0x76 JUMP JUMPDEST PUSH2 0x2710 DUP2 GT ISZERO PUSH2 0x19C JUMPI PUSH1 0x40 MLOAD PUSH3 0x461BCD PUSH1 0xE5 SHL DUP2 MSTORE PUSH1 0x20 PUSH1 0x4 DUP3 ADD MSTORE PUSH1 0xD PUSH1 0x24 DUP3 ADD MSTORE PUSH13 0x929CAC82989288BEA69882A69 PUSH1 0x9B SHL PUSH1 0x44 DUP3 ADD MSTORE PUSH1 0x64 ADD PUSH2 0x76 JUMP JUMPDEST PUSH1 0x0 DUP1 SLOAD PUSH1 0x1 PUSH1 0x1 PUSH1 0xA0 SHL SUB NOT AND PUSH1 0x1 PUSH1 0x1 PUSH1 0xA0 SHL SUB SWAP7 DUP8 AND OR SWAP1 SSTORE SWAP3 DUP5 AND PUSH1 0x80 MSTORE SWAP1 DUP4 AND PUSH1 0xA0 MSTORE SWAP1 SWAP2 AND PUSH1 0xC0 MSTORE PUSH1 0x1 SSTORE PUSH2 0x24C JUMP JUMPDEST DUP1 MLOAD PUSH1 0x1 PUSH1 0x1 PUSH1 0xA0 SHL SUB DUP2 AND DUP2 EQ PUSH2 0x1E9 JUMPI PUSH1 0x0 DUP1 REVERT JUMPDEST SWAP2 SWAP1 POP JUMP JUMPDEST PUSH1 0x0 DUP1 PUSH1 0x0 DUP1 PUSH1 0x0 PUSH1 0xA0 DUP7 DUP9 SUB SLT ISZERO PUSH2 0x206 JUMPI PUSH1 0x0 DUP1 REVERT JUMPDEST PUSH2 0x20F DUP7 PUSH2 0x1D2 JUMP JUMPDEST SWAP5 POP PUSH2 0x21D PUSH1 0x20 DUP8 ADD PUSH2 0x1D2 JUMP JUMPDEST SWAP4 POP PUSH2 0x22B PUSH1 0x40 DUP8 ADD PUSH2 0x1D2 JUMP JUMPDEST SWAP3 POP PUSH2 0x239 PUSH1 0x60 DUP8 ADD PUSH2 0x1D2 JUMP JUMPDEST SWAP2 POP PUSH1 0x80 DUP7 ADD MLOAD SWAP1 POP SWAP3 SWAP6 POP SWAP3 SWAP6 SWAP1 SWAP4 POP JUMP JUMPDEST PUSH1 0x80 MLOAD PUSH1 0xA0 MLOAD PUSH1 0xC0 MLOAD PUSH2 0x725 PUSH2 0x29D PUSH1 0x0 CODECOPY PUSH1 0x0 DUP2 DUP2 PUSH1 0x87 ADD MSTORE PUSH2 0x257 ADD MSTORE PUSH1 0x0 DUP2 DUP2 PUSH2 0x144 ADD MSTORE DUP2 DUP2 PUSH2 0x3A3 ADD MSTORE PUSH2 0x479 ADD MSTORE PUSH1 0x0 DUP2 DUP2 PUSH2 0x106 ADD MSTORE DUP2 DUP2 PUSH2 0x1B0 ADD MSTORE PUSH2 0x301 ADD MSTORE PUSH2 0x725 PUSH1 0x0 RETURN INVALID PUSH1 0x80 PUSH1 0x40 MSTORE CALLVALUE DUP1 ISZERO PUSH2 0x10 JUMPI PUSH1 0x0 DUP1 REVERT JUMPDEST POP PUSH1 0x4 CALLDATASIZE LT PUSH2 0x7D JUMPI PUSH1 0x0 CALLDATALOAD PUSH1 0xE0 SHR DUP1 PUSH4 0x9B7B5A18 GT PUSH2 0x5B JUMPI DUP1 PUSH4 0x9B7B5A18 EQ PUSH2 0xEE JUMPI DUP1 PUSH4 0xA22539E6 EQ PUSH2 0x101 JUMPI DUP1 PUSH4 0xA3AA6589 EQ PUSH2 0x128 JUMPI DUP1 PUSH4 0xDAC1DFE4 EQ PUSH2 0x13F JUMPI PUSH1 0x0 DUP1 REVERT JUMPDEST DUP1 PUSH4 0x4BB93AB1 EQ PUSH2 0x82 JUMPI DUP1 PUSH4 0x5AA6E675 EQ PUSH2 0xC6 JUMPI DUP1 PUSH4 0x9B4AE46A EQ PUSH2 0xD9 JUMPI JUMPDEST PUSH1 0x0 DUP1 REVERT JUMPDEST PUSH2 0xA9 PUSH32 0x0 DUP2 JUMP JUMPDEST PUSH1 0x40 MLOAD PUSH1 0x1 PUSH1 0x1 PUSH1 0xA0 SHL SUB SWAP1 SWAP2 AND DUP2 MSTORE PUSH1 0x20 ADD JUMPDEST PUSH1 0x40 MLOAD DUP1 SWAP2 SUB SWAP1 RETURN JUMPDEST PUSH1 0x0 SLOAD PUSH2 0xA9 SWAP1 PUSH1 0x1 PUSH1 0x1 PUSH1 0xA0 SHL SUB AND DUP2 JUMP JUMPDEST PUSH2 0xEC PUSH2 0xE7 CALLDATASIZE PUSH1 0x4 PUSH2 0x605 JUMP JUMPDEST PUSH2 0x166 JUMP JUMPDEST STOP JUMPDEST PUSH2 0xEC PUSH2 0xFC CALLDATASIZE PUSH1 0x4 PUSH2 0x64C JUMP JUMPDEST PUSH2 0x52C JUMP JUMPDEST PUSH2 0xA9 PUSH32 0x0 DUP2 JUMP JUMPDEST PUSH2 0x131 PUSH1 0x1 SLOAD DUP2 JUMP JUMPDEST PUSH1 0x40 MLOAD SWAP1 DUP2 MSTORE PUSH1 0x20 ADD PUSH2 0xBD JUMP JUMPDEST PUSH2 0xA9 PUSH32 0x0 DUP2 JUMP JUMPDEST PUSH1 0x0 SLOAD PUSH1 0x1 PUSH1 0x1 PUSH1 0xA0 SHL SUB AND CALLER EQ PUSH2 0x191 JUMPI PUSH1 0x40 MLOAD PUSH4 0x54348F03 PUSH1 0xE0 SHL DUP2 MSTORE PUSH1 0x4 ADD PUSH1 0x40 MLOAD DUP1 SWAP2 SUB SWAP1 REVERT JUMPDEST PUSH1 0x40 MLOAD PUSH4 0x2BF0AC19 PUSH1 0xE1 SHL DUP2 MSTORE PUSH1 0x1 PUSH1 0x1 PUSH1 0xA0 SHL SUB DUP4 DUP2 AND PUSH1 0x4 DUP4 ADD MSTORE PUSH32 0x0 AND SWAP1 PUSH4 0x57E15832 SWAP1 PUSH1 0x24 ADD PUSH1 0x20 PUSH1 0x40 MLOAD DUP1 DUP4 SUB DUP2 DUP7 GAS STATICCALL ISZERO DUP1 ISZERO PUSH2 0x1F7 JUMPI RETURNDATASIZE PUSH1 0x0 DUP1 RETURNDATACOPY RETURNDATASIZE PUSH1 0x0 REVERT JUMPDEST POP POP POP POP PUSH1 0x40 MLOAD RETURNDATASIZE PUSH1 0x1F NOT PUSH1 0x1F DUP3 ADD AND DUP3 ADD DUP1 PUSH1 0x40 MSTORE POP DUP2 ADD SWAP1 PUSH2 0x21B SWAP2 SWAP1 PUSH2 0x665 JUMP JUMPDEST PUSH2 0x238 JUMPI PUSH1 0x40 MLOAD PUSH4 0x265AAD3 PUSH1 0xE4 SHL DUP2 MSTORE PUSH1 0x4 ADD PUSH1 0x40 MLOAD DUP1 SWAP2 SUB SWAP1 REVERT JUMPDEST PUSH1 0x40 MLOAD PUSH4 0x3AE9B8F1 PUSH1 0xE0 SHL DUP2 MSTORE PUSH1 0x1 PUSH1 0x1 PUSH1 0xA0 SHL SUB DUP5 DUP2 AND PUSH1 0x4 DUP4 ADD MSTORE PUSH32 0x0 AND SWAP1 PUSH4 0x3AE9B8F1 SWAP1 PUSH1 0x24 ADD PUSH1 0x20 PUSH1 0x40 MLOAD DUP1 DUP4 SUB DUP2 DUP7 GAS STATICCALL ISZERO DUP1 ISZERO PUSH2 0x29E JUMPI RETURNDATASIZE PUSH1 0x0 DUP1 RETURNDATACOPY RETURNDATASIZE PUSH1 0x0 REVERT JUMPDEST POP POP POP POP PUSH1 0x40 MLOAD RETURNDATASIZE PUSH1 0x1F NOT PUSH1 0x1F DUP3 ADD AND DUP3 ADD DUP1 PUSH1 0x40 MSTORE POP DUP2 ADD SWAP1 PUSH2 0x2C2 SWAP2 SWAP1 PUSH2 0x665 JUMP JUMPDEST PUSH2 0x2DF JUMPI PUSH1 0x40 MLOAD PUSH4 0x58E2FFF9 PUSH1 0xE0 SHL DUP2 MSTORE PUSH1 0x4 ADD PUSH1 0x40 MLOAD DUP1 SWAP2 SUB SWAP1 REVERT JUMPDEST PUSH1 0x40 MLOAD PUSH4 0x37979EB1 PUSH1 0xE2 SHL DUP2 MSTORE PUSH1 0x1 PUSH1 0x1 PUSH1 0xA0 SHL SUB DUP4 DUP2 AND PUSH1 0x4 DUP4 ADD MSTORE PUSH1 0x0 SWAP2 PUSH32 0x0 SWAP1 SWAP2 AND SWAP1 PUSH4 0xDE5E7AC4 SWAP1 PUSH1 0x24 ADD PUSH1 0x20 PUSH1 0x40 MLOAD DUP1 DUP4 SUB DUP2 DUP7 GAS STATICCALL ISZERO DUP1 ISZERO PUSH2 0x34A JUMPI RETURNDATASIZE PUSH1 0x0 DUP1 RETURNDATACOPY RETURNDATASIZE PUSH1 0x0 REVERT JUMPDEST POP POP POP POP PUSH1 0x40 MLOAD RETURNDATASIZE PUSH1 0x1F NOT PUSH1 0x1F DUP3 ADD AND DUP3 ADD DUP1 PUSH1 0x40 MSTORE POP DUP2 ADD SWAP1 PUSH2 0x36E SWAP2 SWAP1 PUSH2 0x665 JUMP JUMPDEST SWAP1 POP DUP1 ISZERO ISZERO DUP3 ISZERO ISZERO SUB PUSH2 0x381 JUMPI POP POP POP POP JUMP JUMPDEST PUSH1 0x40 MLOAD PUSH4 0x3D3B323 PUSH1 0xE5 SHL DUP2 MSTORE PUSH1 0x1 PUSH1 0x1 PUSH1 0xA0 SHL SUB DUP6 DUP2 AND PUSH1 0x4 DUP4 ADD MSTORE PUSH1 0x0 SWAP2 PUSH32 0x0 SWAP1 SWAP2 AND SWAP1 PUSH4 0x7A766460 SWAP1 PUSH1 0x24 ADD PUSH1 0x20 PUSH1 0x40 MLOAD DUP1 DUP4 SUB DUP2 DUP7 GAS STATICCALL ISZERO DUP1 ISZERO PUSH2 0x3EC JUMPI RETURNDATASIZE PUSH1 0x0 DUP1 RETURNDATACOPY RETURNDATASIZE PUSH1 0x0 REVERT JUMPDEST POP POP POP POP PUSH1 0x40 MLOAD RETURNDATASIZE PUSH1 0x1F NOT PUSH1 0x1F DUP3 ADD AND DUP3 ADD DUP1 PUSH1 0x40 MSTORE POP DUP2 ADD SWAP1 PUSH2 0x410 SWAP2 SWAP1 PUSH2 0x689 JUMP JUMPDEST SWAP1 POP DUP1 PUSH1 0x0 SUB PUSH2 0x433 JUMPI PUSH1 0x40 MLOAD PUSH4 0xC58D5935 PUSH1 0xE0 SHL DUP2 MSTORE PUSH1 0x4 ADD PUSH1 0x40 MLOAD DUP1 SWAP2 SUB SWAP1 REVERT JUMPDEST PUSH1 0x0 PUSH2 0x2710 PUSH1 0x1 SLOAD DUP4 PUSH2 0x446 SWAP2 SWAP1 PUSH2 0x6A2 JUMP JUMPDEST PUSH2 0x450 SWAP2 SWAP1 PUSH2 0x6CD JUMP JUMPDEST PUSH1 0x40 MLOAD PUSH4 0x2FB4D85 PUSH1 0xE0 SHL DUP2 MSTORE PUSH1 0x1 PUSH1 0x1 PUSH1 0xA0 SHL SUB DUP9 DUP2 AND PUSH1 0x4 DUP4 ADD MSTORE PUSH1 0x24 DUP3 ADD DUP4 SWAP1 MSTORE SWAP2 SWAP3 POP PUSH32 0x0 SWAP1 SWAP2 AND SWAP1 PUSH4 0x2FB4D85 SWAP1 PUSH1 0x44 ADD PUSH1 0x0 PUSH1 0x40 MLOAD DUP1 DUP4 SUB DUP2 PUSH1 0x0 DUP8 DUP1 EXTCODESIZE ISZERO DUP1 ISZERO PUSH2 0x4BF JUMPI PUSH1 0x0 DUP1 REVERT JUMPDEST POP GAS CALL ISZERO DUP1 ISZERO PUSH2 0x4D3 JUMPI RETURNDATASIZE PUSH1 0x0 DUP1 RETURNDATACOPY RETURNDATASIZE PUSH1 0x0 REVERT JUMPDEST POP POP POP POP DUP5 PUSH1 0x1 PUSH1 0x1 PUSH1 0xA0 SHL SUB AND DUP7 PUSH1 0x1 PUSH1 0x1 PUSH1 0xA0 SHL SUB AND PUSH32 0x368B6A56664781CF84DB4F954C0B68AAFCA662904E5FF904B208EB40C659A761 DUP4 PUSH1 0x40 MLOAD PUSH2 0x51C SWAP2 DUP2 MSTORE PUSH1 0x20 ADD SWAP1 JUMP JUMPDEST PUSH1 0x40 MLOAD DUP1 SWAP2 SUB SWAP1 LOG3 POP POP POP POP POP POP JUMP JUMPDEST PUSH1 0x0 SLOAD PUSH1 0x1 PUSH1 0x1 PUSH1 0xA0 SHL SUB AND CALLER EQ PUSH2 0x557 JUMPI PUSH1 0x40 MLOAD PUSH4 0x54348F03 PUSH1 0xE0 SHL DUP2 MSTORE PUSH1 0x4 ADD PUSH1 0x40 MLOAD DUP1 SWAP2 SUB SWAP1 REVERT JUMPDEST PUSH2 0x2710 DUP2 GT ISZERO PUSH2 0x59D JUMPI PUSH1 0x40 MLOAD PUSH3 0x461BCD PUSH1 0xE5 SHL DUP2 MSTORE PUSH1 0x20 PUSH1 0x4 DUP3 ADD MSTORE PUSH1 0xD PUSH1 0x24 DUP3 ADD MSTORE PUSH13 0x929CAC82989288BEA69882A69 PUSH1 0x9B SHL PUSH1 0x44 DUP3 ADD MSTORE PUSH1 0x64 ADD PUSH1 0x40 MLOAD DUP1 SWAP2 SUB SWAP1 REVERT JUMPDEST PUSH1 0x1 DUP2 SWAP1 SSTORE PUSH1 0x40 MLOAD DUP2 DUP2 MSTORE PUSH32 0x1654E89C8D2DAC302E1C1104593C96CB34B1E288ADA068A1ED1715D2A5DD9A5F SWAP1 PUSH1 0x20 ADD PUSH1 0x40 MLOAD DUP1 SWAP2 SUB SWAP1 LOG1 POP JUMP JUMPDEST DUP1 CALLDATALOAD PUSH1 0x1 PUSH1 0x1 PUSH1 0xA0 SHL SUB DUP2 AND DUP2 EQ PUSH2 0x5EF JUMPI PUSH1 0x0 DUP1 REVERT JUMPDEST SWAP2 SWAP1 POP JUMP JUMPDEST DUP1 ISZERO ISZERO DUP2 EQ PUSH2 0x602 JUMPI PUSH1 0x0 DUP1 REVERT JUMPDEST POP JUMP JUMPDEST PUSH1 0x0 DUP1 PUSH1 0x0 PUSH1 0x60 DUP5 DUP7 SUB SLT ISZERO PUSH2 0x61A JUMPI PUSH1 0x0 DUP1 REVERT JUMPDEST PUSH2 0x623 DUP5 PUSH2 0x5D8 JUMP JUMPDEST SWAP3 POP PUSH2 0x631 PUSH1 0x20 DUP6 ADD PUSH2 0x5D8 JUMP JUMPDEST SWAP2 POP PUSH1 0x40 DUP5 ADD CALLDATALOAD PUSH2 0x641 DUP2 PUSH2 0x5F4 JUMP JUMPDEST DUP1 SWAP2 POP POP SWAP3 POP SWAP3 POP SWAP3 JUMP JUMPDEST PUSH1 0x0 PUSH1 0x20 DUP3 DUP5 SUB SLT ISZERO PUSH2 0x65E JUMPI PUSH1 0x0 DUP1 REVERT JUMPDEST POP CALLDATALOAD SWAP2 SWAP1 POP JUMP JUMPDEST PUSH1 0x0 PUSH1 0x20 DUP3 DUP5 SUB SLT ISZERO PUSH2 0x677 JUMPI PUSH1 0x0 DUP1 REVERT JUMPDEST DUP2 MLOAD PUSH2 0x682 DUP2 PUSH2 0x5F4 JUMP JUMPDEST SWAP4 SWAP3 POP POP POP JUMP JUMPDEST PUSH1 0x0 PUSH1 0x20 DUP3 DUP5 SUB SLT ISZERO PUSH2 0x69B JUMPI PUSH1 0x0 DUP1 REVERT JUMPDEST POP MLOAD SWAP2 SWAP1 POP JUMP JUMPDEST DUP1 DUP3 MUL DUP2 ISZERO DUP3 DUP3 DIV DUP5 EQ OR PUSH2 0x6C7 JUMPI PUSH4 0x4E487B71 PUSH1 0xE0 SHL PUSH1 0x0 MSTORE PUSH1 0x11 PUSH1 0x4 MSTORE PUSH1 0x24 PUSH1 0x0 REVERT JUMPDEST SWAP3 SWAP2 POP POP JUMP JUMPDEST PUSH1 0x0 DUP3 PUSH2 0x6EA JUMPI PUSH4 0x4E487B71 PUSH1 0xE0 SHL PUSH1 0x0 MSTORE PUSH1 0x12 PUSH1 0x4 MSTORE PUSH1 0x24 PUSH1 0x0 REVERT JUMPDEST POP DIV SWAP1 JUMP INVALID LOG2 PUSH5 0x6970667358 0x22 SLT KECCAK256 0x1E 0xA9 DUP16 0xD5 0xBF PUSH26 0xC2ADA3A7D36BFBACE27422BF0A8FA597071642D6300686117DAE PUSH5 0x736F6C6343 STOP ADDMOD EQ STOP CALLER "},"gasEstimates":{"creation":{"codeDepositCost":"365800","executionCost":"infinite","totalCost":"infinite"},"external":{"baseSlashBps()":"2339","governance()":"2349","oracleConsensus()":"infinite","oracleRegistry()":"infinite","oracleStaking()":"infinite","slashOracle(address,address,bool)":"infinite","updateBaseSlash(uint256)":"25555"}},"methodIdentifiers":{"baseSlashBps()":"a3aa6589","governance()":"5aa6e675","oracleConsensus()":"a22539e6","oracleRegistry()":"4bb93ab1","oracleStaking()":"dac1dfe4","slashOracle(address,address,bool)":"9b4ae46a","updateBaseSlash(uint256)":"9b7b5a18"}},"storageLayout":{"storage":[{"astId":649,"contract":"oracles/OracleSlashing.sol:OracleSlashing","label":"governance","offset":0,"slot":"0","type":"t_address"},{"astId":661,"contract":"oracles/OracleSlashing.sol:OracleSlashing","label":"baseSlashBps","offset":0,"slot":"1","type":"t_uint256"}],"types":{"t_address":{"encoding":"inplace","label":"address","numberOfBytes":"20"},"t_uint256":{"encoding":"inplace","label":"uint256","numberOfBytes":"32"}}},"userdoc":{"kind":"user","methods":{"baseSlashBps()":{"notice":"Base slashing rate in basis points"},"slashOracle(address,address,bool)":{"notice":"Slash oracle after finalized consensus"}},"version":1}}}}