{
  "_format": "hh-sol-artifact-1",
  "contractName": "OracleRegistry",
  "sourceName": "oracles/OracleRegistry.sol",
  "abi": [
    {
      "inputs": [
        {
          "internalType": "address",
          "name": "_governance",
          "type": "address"
        }
      ],
      "stateMutability": "nonpayable",
      "type": "constructor"
    },
    {
      "inputs": [],
      "name": "InvalidMetadata",
      "type": "error"
    },
    {
      "inputs": [],
      "name": "OnlyGovernance",
      "type": "error"
    },
    {
      "inputs": [],
      "name": "OracleAlreadyRegistered",
      "type": "error"
    },
    {
      "inputs": [],
      "name": "OracleNotRegistered",
      "type": "error"
    },
    {
      "anonymous": false,
      "inputs": [
        {
          "indexed": true,
          "internalType": "address",
          "name": "oracle",
          "type": "address"
        }
      ],
      "name": "OracleActivated",
      "type": "event"
    },
    {
      "anonymous": false,
      "inputs": [
        {
          "indexed": true,
          "internalType": "address",
          "name": "oracle",
          "type": "address"
        }
      ],
      "name": "OracleDeactivated",
      "type": "event"
    },
    {
      "anonymous": false,
      "inputs": [
        {
          "indexed": true,
          "internalType": "address",
          "name": "oracle",
          "type": "address"
        },
        {
          "indexed": true,
          "internalType": "bytes32",
          "name": "oracleId",
          "type": "bytes32"
        },
        {
          "indexed": false,
          "internalType": "string",
          "name": "metadataURI",
          "type": "string"
        }
      ],
      "name": "OracleRegistered",
      "type": "event"
    },
    {
      "inputs": [
        {
          "internalType": "address",
          "name": "oracle",
          "type": "address"
        }
      ],
      "name": "activateOracle",
      "outputs": [],
      "stateMutability": "nonpayable",
      "type": "function"
    },
    {
      "inputs": [
        {
          "internalType": "address",
          "name": "oracle",
          "type": "address"
        }
      ],
      "name": "deactivateOracle",
      "outputs": [],
      "stateMutability": "nonpayable",
      "type": "function"
    },
    {
      "inputs": [
        {
          "internalType": "address",
          "name": "oracle",
          "type": "address"
        }
      ],
      "name": "getOracle",
      "outputs": [
        {
          "internalType": "bytes32",
          "name": "oracleId",
          "type": "bytes32"
        },
        {
          "internalType": "string",
          "name": "metadataURI",
          "type": "string"
        },
        {
          "internalType": "bool",
          "name": "active",
          "type": "bool"
        }
      ],
      "stateMutability": "view",
      "type": "function"
    },
    {
      "inputs": [],
      "name": "governance",
      "outputs": [
        {
          "internalType": "address",
          "name": "",
          "type": "address"
        }
      ],
      "stateMutability": "view",
      "type": "function"
    },
    {
      "inputs": [
        {
          "internalType": "address",
          "name": "oracle",
          "type": "address"
        }
      ],
      "name": "isActiveOracle",
      "outputs": [
        {
          "internalType": "bool",
          "name": "",
          "type": "bool"
        }
      ],
      "stateMutability": "view",
      "type": "function"
    },
    {
      "inputs": [
        {
          "internalType": "bytes32",
          "name": "oracleId",
          "type": "bytes32"
        },
        {
          "internalType": "string",
          "name": "metadataURI",
          "type": "string"
        }
      ],
      "name": "registerOracle",
      "outputs": [],
      "stateMutability": "nonpayable",
      "type": "function"
    },
    {
      "inputs": [],
      "name": "totalOracles",
      "outputs": [
        {
          "internalType": "uint256",
          "name": "",
          "type": "uint256"
        }
      ],
      "stateMutability": "view",
      "type": "function"
    }
  ],
  "bytecode": "0x608060405234801561001057600080fd5b506040516108fe3803806108fe83398101604081905261002f916100a3565b6001600160a01b03811661007e5760405162461bcd60e51b8152602060048201526012602482015271494e56414c49445f474f5645524e414e434560701b604482015260640160405180910390fd5b600080546001600160a01b0319166001600160a01b03929092169190911790556100d3565b6000602082840312156100b557600080fd5b81516001600160a01b03811681146100cc57600080fd5b9392505050565b61081c806100e26000396000f3fe608060405234801561001057600080fd5b506004361061007d5760003560e01c80635fa785341161005b5780635fa78534146101175780637a8a01471461012c578063ed69c6041461013f578063f2fbad471461015257600080fd5b806310d3d22e146100825780633ae9b8f1146100ad5780635aa6e675146100ec575b600080fd5b610095610090366004610526565b610169565b6040516100a493929190610556565b60405180910390f35b6100dc6100bb366004610526565b6001600160a01b031660009081526001602052604090206002015460ff1690565b60405190151581526020016100a4565b6000546100ff906001600160a01b031681565b6040516001600160a01b0390911681526020016100a4565b61012a6101253660046105b5565b61025c565b005b61012a61013a366004610526565b6103c2565b61012a61014d366004610526565b610475565b61015b60025481565b6040519081526020016100a4565b6001600160a01b038116600090815260016020526040812060028101546060918391610100900460ff166101b05760405163780e36c760e11b815260040160405180910390fd5b80546002820154600183018054909160ff169082906101ce90610631565b80601f01602080910402602001604051908101604052809291908181526020018280546101fa90610631565b80156102475780601f1061021c57610100808354040283529160200191610247565b820191906000526020600020905b81548152906001019060200180831161022a57829003601f168201915b50505050509150935093509350509193909250565b33600090815260016020526040902060020154610100900460ff1615610295576040516388e26e5360e01b815260040160405180910390fd5b60008190036102b757604051635e765b2560e11b815260040160405180910390fd5b604051806080016040528084815260200183838080601f0160208091040260200160405190810160405280939291908181526020018383808284376000920182905250938552505050602080830182905260016040938401819052338352808252929091208351815590830151909182019061033390826106d0565b5060408201516002918201805460609094015115156101000261ff00199215159290921661ffff19909416939093171790915580546001919060009061037a908490610790565b9091555050604051839033907fe9a336f8fe3ec01f20d6bd231a6af889f5c5c48449ee37fca61200cec565a68d906103b590869086906107b7565b60405180910390a3505050565b6000546001600160a01b031633146103ed576040516354348f0360e01b815260040160405180910390fd5b6001600160a01b03811660009081526001602052604090206002810154610100900460ff1661042f5760405163780e36c760e11b815260040160405180910390fd5b60028101805460ff191660011790556040516001600160a01b038316907ea782fe24c6f42be5a93629570452e0c346b240550bcbbbb3ba4c09076a966990600090a25050565b6000546001600160a01b031633146104a0576040516354348f0360e01b815260040160405180910390fd5b6001600160a01b03811660009081526001602052604090206002810154610100900460ff166104e25760405163780e36c760e11b815260040160405180910390fd5b60028101805460ff191690556040516001600160a01b038316907fa25de647dc39ef1d7eb7c3431bf1ab4da4040436d641e3c1ce57f20575b33a5690600090a25050565b60006020828403121561053857600080fd5b81356001600160a01b038116811461054f57600080fd5b9392505050565b83815260006020606081840152845180606085015260005b8181101561058a5786810183015185820160800152820161056e565b506000608082860101526080601f19601f830116850101925050508215156040830152949350505050565b6000806000604084860312156105ca57600080fd5b83359250602084013567ffffffffffffffff808211156105e957600080fd5b818601915086601f8301126105fd57600080fd5b81358181111561060c57600080fd5b87602082850101111561061e57600080fd5b6020830194508093505050509250925092565b600181811c9082168061064557607f821691505b60208210810361066557634e487b7160e01b600052602260045260246000fd5b50919050565b634e487b7160e01b600052604160045260246000fd5b601f8211156106cb57600081815260208120601f850160051c810160208610156106a85750805b601f850160051c820191505b818110156106c7578281556001016106b4565b5050505b505050565b815167ffffffffffffffff8111156106ea576106ea61066b565b6106fe816106f88454610631565b84610681565b602080601f831160018114610733576000841561071b5750858301515b600019600386901b1c1916600185901b1785556106c7565b600085815260208120601f198616915b8281101561076257888601518255948401946001909101908401610743565b50858210156107805787850151600019600388901b60f8161c191681555b5050505050600190811b01905550565b808201808211156107b157634e487b7160e01b600052601160045260246000fd5b92915050565b60208152816020820152818360408301376000818301604090810191909152601f909201601f1916010191905056fea2646970667358221220a9a8f396680a17eb48ebf2367f6763ad039d058ea77caf59b4ca3a60511c81a264736f6c63430008140033",
  "linkReferences": {},
  "deployedLinkReferences": {}
}