{
  "_format": "hh-sol-artifact-1",
  "contractName": "OracleSlashing",
  "sourceName": "oracles/OracleSlashing.sol",
  "abi": [
    {
      "inputs": [
        {
          "internalType": "address",
          "name": "_governance",
          "type": "address"
        },
        {
          "internalType": "address",
          "name": "_oracleConsensus",
          "type": "address"
        },
        {
          "internalType": "address",
          "name": "_oracleStaking",
          "type": "address"
        },
        {
          "internalType": "address",
          "name": "_oracleRegistry",
          "type": "address"
        },
        {
          "internalType": "uint256",
          "name": "_baseSlashBps",
          "type": "uint256"
        }
      ],
      "stateMutability": "nonpayable",
      "type": "constructor"
    },
    {
      "inputs": [],
      "name": "ConsensusNotFinalized",
      "type": "error"
    },
    {
      "inputs": [],
      "name": "InvalidSlashAmount",
      "type": "error"
    },
    {
      "inputs": [],
      "name": "OnlyGovernance",
      "type": "error"
    },
    {
      "inputs": [],
      "name": "OracleNotEligible",
      "type": "error"
    },
    {
      "anonymous": false,
      "inputs": [
        {
          "indexed": true,
          "internalType": "address",
          "name": "oracle",
          "type": "address"
        },
        {
          "indexed": true,
          "internalType": "address",
          "name": "market",
          "type": "address"
        },
        {
          "indexed": false,
          "internalType": "uint256",
          "name": "amount",
          "type": "uint256"
        }
      ],
      "name": "OracleSlashed",
      "type": "event"
    },
    {
      "anonymous": false,
      "inputs": [
        {
          "indexed": false,
          "internalType": "uint256",
          "name": "newSlashBps",
          "type": "uint256"
        }
      ],
      "name": "SlashRateUpdated",
      "type": "event"
    },
    {
      "inputs": [],
      "name": "baseSlashBps",
      "outputs": [
        {
          "internalType": "uint256",
          "name": "",
          "type": "uint256"
        }
      ],
      "stateMutability": "view",
      "type": "function"
    },
    {
      "inputs": [],
      "name": "governance",
      "outputs": [
        {
          "internalType": "address",
          "name": "",
          "type": "address"
        }
      ],
      "stateMutability": "view",
      "type": "function"
    },
    {
      "inputs": [],
      "name": "oracleConsensus",
      "outputs": [
        {
          "internalType": "contract OracleConsensus",
          "name": "",
          "type": "address"
        }
      ],
      "stateMutability": "view",
      "type": "function"
    },
    {
      "inputs": [],
      "name": "oracleRegistry",
      "outputs": [
        {
          "internalType": "contract OracleRegistry",
          "name": "",
          "type": "address"
        }
      ],
      "stateMutability": "view",
      "type": "function"
    },
    {
      "inputs": [],
      "name": "oracleStaking",
      "outputs": [
        {
          "internalType": "contract OracleStaking",
          "name": "",
          "type": "address"
        }
      ],
      "stateMutability": "view",
      "type": "function"
    },
    {
      "inputs": [
        {
          "internalType": "address",
          "name": "oracle",
          "type": "address"
        },
        {
          "internalType": "address",
          "name": "market",
          "type": "address"
        },
        {
          "internalType": "bool",
          "name": "oracleOutcome",
          "type": "bool"
        }
      ],
      "name": "slashOracle",
      "outputs": [],
      "stateMutability": "nonpayable",
      "type": "function"
    },
    {
      "inputs": [
        {
          "internalType": "uint256",
          "name": "newSlashBps",
          "type": "uint256"
        }
      ],
      "name": "updateBaseSlash",
      "outputs": [],
      "stateMutability": "nonpayable",
      "type": "function"
    }
  ],
  "bytecode": "0x60e060405234801561001057600080fd5b506040516109c23803806109c283398101604081905261002f916101ee565b6001600160a01b03851661007f5760405162461bcd60e51b8152602060048201526012602482015271494e56414c49445f474f5645524e414e434560701b60448201526064015b60405180910390fd5b6001600160a01b0384166100c95760405162461bcd60e51b8152602060048201526011602482015270494e56414c49445f434f4e53454e53555360781b6044820152606401610076565b6001600160a01b0383166101115760405162461bcd60e51b815260206004820152600f60248201526e494e56414c49445f5354414b494e4760881b6044820152606401610076565b6001600160a01b03821661015a5760405162461bcd60e51b815260206004820152601060248201526f494e56414c49445f524547495354525960801b6044820152606401610076565b61271081111561019c5760405162461bcd60e51b815260206004820152600d60248201526c0929cac82989288bea69882a69609b1b6044820152606401610076565b600080546001600160a01b0319166001600160a01b0396871617905592841660805290831660a05290911660c05260015561024c565b80516001600160a01b03811681146101e957600080fd5b919050565b600080600080600060a0868803121561020657600080fd5b61020f866101d2565b945061021d602087016101d2565b935061022b604087016101d2565b9250610239606087016101d2565b9150608086015190509295509295909350565b60805160a05160c05161072561029d6000396000818160870152610257015260008181610144015281816103a30152610479015260008181610106015281816101b0015261030101526107256000f3fe608060405234801561001057600080fd5b506004361061007d5760003560e01c80639b7b5a181161005b5780639b7b5a18146100ee578063a22539e614610101578063a3aa658914610128578063dac1dfe41461013f57600080fd5b80634bb93ab1146100825780635aa6e675146100c65780639b4ae46a146100d9575b600080fd5b6100a97f000000000000000000000000000000000000000000000000000000000000000081565b6040516001600160a01b0390911681526020015b60405180910390f35b6000546100a9906001600160a01b031681565b6100ec6100e7366004610605565b610166565b005b6100ec6100fc36600461064c565b61052c565b6100a97f000000000000000000000000000000000000000000000000000000000000000081565b61013160015481565b6040519081526020016100bd565b6100a97f000000000000000000000000000000000000000000000000000000000000000081565b6000546001600160a01b03163314610191576040516354348f0360e01b815260040160405180910390fd5b604051632bf0ac1960e11b81526001600160a01b0383811660048301527f000000000000000000000000000000000000000000000000000000000000000016906357e1583290602401602060405180830381865afa1580156101f7573d6000803e3d6000fd5b505050506040513d601f19601f8201168201806040525081019061021b9190610665565b61023857604051630265aad360e41b815260040160405180910390fd5b604051633ae9b8f160e01b81526001600160a01b0384811660048301527f00000000000000000000000000000000000000000000000000000000000000001690633ae9b8f190602401602060405180830381865afa15801561029e573d6000803e3d6000fd5b505050506040513d601f19601f820116820180604052508101906102c29190610665565b6102df576040516358e2fff960e01b815260040160405180910390fd5b6040516337979eb160e21b81526001600160a01b0383811660048301526000917f00000000000000000000000000000000000000000000000000000000000000009091169063de5e7ac490602401602060405180830381865afa15801561034a573d6000803e3d6000fd5b505050506040513d601f19601f8201168201806040525081019061036e9190610665565b9050801515821515036103815750505050565b6040516303d3b32360e51b81526001600160a01b0385811660048301526000917f000000000000000000000000000000000000000000000000000000000000000090911690637a76646090602401602060405180830381865afa1580156103ec573d6000803e3d6000fd5b505050506040513d601f19601f820116820180604052508101906104109190610689565b9050806000036104335760405163c58d593560e01b815260040160405180910390fd5b60006127106001548361044691906106a2565b61045091906106cd565b6040516302fb4d8560e01b81526001600160a01b038881166004830152602482018390529192507f0000000000000000000000000000000000000000000000000000000000000000909116906302fb4d8590604401600060405180830381600087803b1580156104bf57600080fd5b505af11580156104d3573d6000803e3d6000fd5b50505050846001600160a01b0316866001600160a01b03167f368b6a56664781cf84db4f954c0b68aafca662904e5ff904b208eb40c659a7618360405161051c91815260200190565b60405180910390a3505050505050565b6000546001600160a01b03163314610557576040516354348f0360e01b815260040160405180910390fd5b61271081111561059d5760405162461bcd60e51b815260206004820152600d60248201526c0929cac82989288bea69882a69609b1b604482015260640160405180910390fd5b60018190556040518181527f1654e89c8d2dac302e1c1104593c96cb34b1e288ada068a1ed1715d2a5dd9a5f9060200160405180910390a150565b80356001600160a01b03811681146105ef57600080fd5b919050565b801515811461060257600080fd5b50565b60008060006060848603121561061a57600080fd5b610623846105d8565b9250610631602085016105d8565b91506040840135610641816105f4565b809150509250925092565b60006020828403121561065e57600080fd5b5035919050565b60006020828403121561067757600080fd5b8151610682816105f4565b9392505050565b60006020828403121561069b57600080fd5b5051919050565b80820281158282048414176106c757634e487b7160e01b600052601160045260246000fd5b92915050565b6000826106ea57634e487b7160e01b600052601260045260246000fd5b50049056fea26469706673582212201ea98fd5bf79c2ada3a7d36bfbace27422bf0a8fa597071642d6300686117dae64736f6c63430008140033",
  "linkReferences": {},
  "deployedLinkReferences": {}
}