{
  "_format": "hh-sol-artifact-1",
  "contractName": "OracleConsensus",
  "sourceName": "oracles/OracleConsensus.sol",
  "abi": [
    {
      "inputs": [
        {
          "internalType": "address",
          "name": "_governance",
          "type": "address"
        },
        {
          "internalType": "address",
          "name": "_oracleRegistry",
          "type": "address"
        },
        {
          "internalType": "address",
          "name": "_oracleStaking",
          "type": "address"
        },
        {
          "internalType": "uint256",
          "name": "_oracleWeightCapBps",
          "type": "uint256"
        }
      ],
      "stateMutability": "nonpayable",
      "type": "constructor"
    },
    {
      "inputs": [],
      "name": "AlreadySubmitted",
      "type": "error"
    },
    {
      "inputs": [],
      "name": "ConsensusClosed",
      "type": "error"
    },
    {
      "inputs": [],
      "name": "ConsensusNotFinalized",
      "type": "error"
    },
    {
      "inputs": [],
      "name": "InvalidMarket",
      "type": "error"
    },
    {
      "inputs": [],
      "name": "OnlyGovernance",
      "type": "error"
    },
    {
      "inputs": [],
      "name": "OracleNotActive",
      "type": "error"
    },
    {
      "inputs": [],
      "name": "WeightCapExceeded",
      "type": "error"
    },
    {
      "anonymous": false,
      "inputs": [
        {
          "indexed": true,
          "internalType": "address",
          "name": "market",
          "type": "address"
        },
        {
          "indexed": false,
          "internalType": "bool",
          "name": "outcome",
          "type": "bool"
        },
        {
          "indexed": false,
          "internalType": "uint256",
          "name": "totalYesWeight",
          "type": "uint256"
        },
        {
          "indexed": false,
          "internalType": "uint256",
          "name": "totalNoWeight",
          "type": "uint256"
        }
      ],
      "name": "ConsensusFinalized",
      "type": "event"
    },
    {
      "anonymous": false,
      "inputs": [
        {
          "indexed": true,
          "internalType": "address",
          "name": "oracle",
          "type": "address"
        },
        {
          "indexed": true,
          "internalType": "address",
          "name": "market",
          "type": "address"
        },
        {
          "indexed": false,
          "internalType": "bool",
          "name": "outcome",
          "type": "bool"
        },
        {
          "indexed": false,
          "internalType": "uint256",
          "name": "weight",
          "type": "uint256"
        }
      ],
      "name": "OracleSubmitted",
      "type": "event"
    },
    {
      "anonymous": false,
      "inputs": [
        {
          "indexed": false,
          "internalType": "uint256",
          "name": "newCap",
          "type": "uint256"
        }
      ],
      "name": "WeightCapUpdated",
      "type": "event"
    },
    {
      "inputs": [
        {
          "internalType": "address",
          "name": "market",
          "type": "address"
        }
      ],
      "name": "finalizeConsensus",
      "outputs": [],
      "stateMutability": "nonpayable",
      "type": "function"
    },
    {
      "inputs": [
        {
          "internalType": "address",
          "name": "market",
          "type": "address"
        }
      ],
      "name": "getOutcome",
      "outputs": [
        {
          "internalType": "bool",
          "name": "outcome",
          "type": "bool"
        }
      ],
      "stateMutability": "view",
      "type": "function"
    },
    {
      "inputs": [],
      "name": "governance",
      "outputs": [
        {
          "internalType": "address",
          "name": "",
          "type": "address"
        }
      ],
      "stateMutability": "view",
      "type": "function"
    },
    {
      "inputs": [
        {
          "internalType": "address",
          "name": "market",
          "type": "address"
        }
      ],
      "name": "isFinalized",
      "outputs": [
        {
          "internalType": "bool",
          "name": "",
          "type": "bool"
        }
      ],
      "stateMutability": "view",
      "type": "function"
    },
    {
      "inputs": [],
      "name": "oracleRegistry",
      "outputs": [
        {
          "internalType": "contract OracleRegistry",
          "name": "",
          "type": "address"
        }
      ],
      "stateMutability": "view",
      "type": "function"
    },
    {
      "inputs": [],
      "name": "oracleStaking",
      "outputs": [
        {
          "internalType": "contract OracleStaking",
          "name": "",
          "type": "address"
        }
      ],
      "stateMutability": "view",
      "type": "function"
    },
    {
      "inputs": [],
      "name": "oracleWeightCapBps",
      "outputs": [
        {
          "internalType": "uint256",
          "name": "",
          "type": "uint256"
        }
      ],
      "stateMutability": "view",
      "type": "function"
    },
    {
      "inputs": [
        {
          "internalType": "address",
          "name": "market",
          "type": "address"
        },
        {
          "internalType": "bool",
          "name": "outcome",
          "type": "bool"
        }
      ],
      "name": "submitOutcome",
      "outputs": [],
      "stateMutability": "nonpayable",
      "type": "function"
    },
    {
      "inputs": [
        {
          "internalType": "uint256",
          "name": "newCapBps",
          "type": "uint256"
        }
      ],
      "name": "updateWeightCap",
      "outputs": [],
      "stateMutability": "nonpayable",
      "type": "function"
    }
  ],
  "bytecode": "0x60c060405234801561001057600080fd5b50604051610a06380380610a0683398101604081905261002f9161015c565b6001600160a01b03841661007f5760405162461bcd60e51b8152602060048201526012602482015271494e56414c49445f474f5645524e414e434560701b60448201526064015b60405180910390fd5b6001600160a01b0383166100c85760405162461bcd60e51b815260206004820152601060248201526f494e56414c49445f524547495354525960801b6044820152606401610076565b6001600160a01b0382166101105760405162461bcd60e51b815260206004820152600f60248201526e494e56414c49445f5354414b494e4760881b6044820152606401610076565b600080546001600160a01b0319166001600160a01b0395861617905591831660805290911660a0526001556101a7565b80516001600160a01b038116811461015757600080fd5b919050565b6000806000806080858703121561017257600080fd5b61017b85610140565b935061018960208601610140565b925061019760408601610140565b6060959095015193969295505050565b60805160a0516108266101e06000396000818161016f015281816102e2015261035b01526000818160ce01526101cc01526108266000f3fe608060405234801561001057600080fd5b50600436106100935760003560e01c80635aa6e675116100665780635aa6e67514610144578063ba269c1214610157578063dac1dfe41461016a578063de5e7ac414610191578063e91550da146101a457600080fd5b806303f2b6a71461009857806321d1fbf3146100b45780634bb93ab1146100c957806357e1583214610108575b600080fd5b6100a160015481565b6040519081526020015b60405180910390f35b6100c76100c23660046106e0565b6101b7565b005b6100f07f000000000000000000000000000000000000000000000000000000000000000081565b6040516001600160a01b0390911681526020016100ab565b610134610116366004610717565b6001600160a01b031660009081526002602052604090205460ff1690565b60405190151581526020016100ab565b6000546100f0906001600160a01b031681565b6100c7610165366004610739565b6104dc565b6100f07f000000000000000000000000000000000000000000000000000000000000000081565b61013461019f366004610717565b610586565b6100c76101b2366004610717565b6105cf565b604051633ae9b8f160e01b81523360048201527f00000000000000000000000000000000000000000000000000000000000000006001600160a01b031690633ae9b8f190602401602060405180830381865afa15801561021b573d6000803e3d6000fd5b505050506040513d601f19601f8201168201806040525081019061023f9190610752565b61025c57604051634db6f8b960e01b815260040160405180910390fd5b6001600160a01b0382166000908152600260205260409020805460ff1615610297576040516332883adf60e01b815260040160405180910390fd5b33600090815260038201602052604090205460ff16156102ca57604051639fbfc58960e01b815260040160405180910390fd5b6040516303d3b32360e51b81523360048201526000907f00000000000000000000000000000000000000000000000000000000000000006001600160a01b031690637a76646090602401602060405180830381865afa158015610331573d6000803e3d6000fd5b505050506040513d601f19601f82011682018060405250810190610355919061076f565b905060007f00000000000000000000000000000000000000000000000000000000000000006001600160a01b031663817b1cd26040518163ffffffff1660e01b8152600401602060405180830381865afa1580156103b7573d6000803e3d6000fd5b505050506040513d601f19601f820116820180604052508101906103db919061076f565b90506000612710600154836103f0919061079e565b6103fa91906107bb565b9050600081841161040b578361040d565b815b90508060000361043057604051637df6c2f160e11b815260040160405180910390fd5b3360009081526003860160205260409020805460ff191660011790558515610471578085600101600082825461046691906107dd565b9091555061048b9050565b8085600201600082825461048591906107dd565b90915550505b604080518715158152602081018390526001600160a01b0389169133917f06896601a5cc8287598de242cf11915a89437b0f7696e63e3a3a4df8e7dfd114910160405180910390a350505050505050565b6000546001600160a01b03163314610507576040516354348f0360e01b815260040160405180910390fd5b61271081111561054b5760405162461bcd60e51b815260206004820152600b60248201526a0494e56414c49445f4341560ac1b604482015260640160405180910390fd5b60018190556040518181527f3e722b64d33d3f6a0441a682a2f8e284eb650fbeb1c663e7d6a6ad9788c5557e9060200160405180910390a150565b6001600160a01b0381166000908152600260205260408120805460ff166105c057604051630265aad360e41b815260040160405180910390fd5b54610100900460ff1692915050565b6000546001600160a01b031633146105fa576040516354348f0360e01b815260040160405180910390fd5b6001600160a01b0381166000908152600260205260409020805460ff1615610635576040516332883adf60e01b815260040160405180910390fd5b805460028201546001808401548281101561010090810261ffff1990951694909417909117808555604080519490910460ff161515845260208401919091528201526001600160a01b038316907f6999fd6d258eb39c77ca9ce41661aa65013612d4981144feb9bcbc48d0ed5e089060600160405180910390a25050565b80356001600160a01b03811681146106ca57600080fd5b919050565b80151581146106dd57600080fd5b50565b600080604083850312156106f357600080fd5b6106fc836106b3565b9150602083013561070c816106cf565b809150509250929050565b60006020828403121561072957600080fd5b610732826106b3565b9392505050565b60006020828403121561074b57600080fd5b5035919050565b60006020828403121561076457600080fd5b8151610732816106cf565b60006020828403121561078157600080fd5b5051919050565b634e487b7160e01b600052601160045260246000fd5b80820281158282048414176107b5576107b5610788565b92915050565b6000826107d857634e487b7160e01b600052601260045260246000fd5b500490565b808201808211156107b5576107b561078856fea2646970667358221220a05a56c48c3745f32f7a736cda1ede0d42033c325a62552f7139752e5cc8218b64736f6c63430008140033",
  "linkReferences": {},
  "deployedLinkReferences": {}
}